:10000000B0210020451400004114000041140000FC
:1000100000000000000000000000000000000000E0
:10002000000000000000000000000000411400007B
:100030000000000000000000411400004114000016
:10004000411400004114000041140000411400005C
:100050008D02000041140000411400004114000012
:1000600041140000690700007907000089070000BB
:1000700099070000A9070000B9070000411400001B
:10008000411400004114000041140000411400001C
:10009000411400004114000041140000411400000C
:1000A00041140000411400004114000041140000FC
:1000B0000000000010B5064C2378002B07D1054B3B
:1000C000002B02D0044800E000BF0123237010BDC4
:1000D00070000020000000006C800200084B10B58A
:1000E000002B03D00749084800E000BF0748036819
:1000F000002B00D110BD064B002BFBD09847F9E731
:1001000000000000740000206C8002006C8002007F
:100110000000000070B5094B00209847FA21084CF8
:1001200089000500A047074B074918602800A04731
:100130000522064B1860064B1A6070BD01120000C4
:10014000B12100000000002040420F000400002008
:1001500010E000E030B580240021074B64021A68EB
:10016000064B013800D230BD002AFAD05A6099609F
:100170001D682542FCD0F4E70400002010E000E0F8
:1001800030B580240021074B64021A68064B013801
:1001900000D230BD002AFAD05A6099601D6825420D
:1001A000FCD0F4E70000002010E000E0094B1968E3
:1001B00000290BD1EFF31080074A002805D172B651
:1001C000BFF35F8F05490870012111701A68013271
:1001D0001A6070478C00002090000020080000206A
:1001E000084B1A68013A1A601B68002B09D1064BAC
:1001F0001B78002B05D00122044B1A70BFF35F8FD0
:1002000062B670478C00002090000020080000209B
:10021000F7B50125002701AC084E21003E2065708E
:10022000A7702570B0478022054BD2051A602100C7
:100230000F2027706570B047F7BDC046E50300008A
:100240009844004110B51723002A06D1064B8900B7
:10025000CC58002C03D1C8502300180010BD130047
:100260008442FAD01D23F8E7080100201723002953
:1002700006D11F2806D8163B8340034AD3600B00E3
:1002800018007047C960FFDE00180040002370B5F9
:1002900001250B4C237023780F2B00D970BD29004A
:1002A0009940084A1069084206D01161064A9B002D
:1002B0009B58002B00D09847237801332370EAE73E
:1002C000040100200018004008010020014B58786C
:1002D000C009704700180040022310B5044A117885
:1002E0000B431370034B98470028FBD110BDC04649
:1002F00000180040CD020000402307B5104A052039
:1003000091690B439361002301A90B700D4B984732
:100310000D4B0520984701230C4A11780B431370AD
:100320000B4B98470028FBD102000A4B1A500430AF
:100330004028FBD11022084B1A60084B984707BD94
:100340000004004011130000891200000018004052
:10035000CD0200000801002000E100E0D902000009
:1003600000230122036043608372023302724272EF
:10037000C3727047F7B50C000026237901A94E70AF
:10038000CE700B70237A05008B702078134B984742
:1003900033001F2D00D8124B0721A27A2940890073
:1003A000E67A002A01D0082216430F278E408F409C
:1003B0003100EA0892009A189069B84301439161AC
:1003C000617A0122002904D0AA4059690A435A617E
:1003D000F7BDAA40596991435961F9E7E513000057
:1003E0000018004007B5802201AB1A700A785A70D5
:1003F0004A789A708A781900DA70014B984707BDDD
:10040000E5130000F0B5002489B0009201933F236A
:10041000002600272500069007910393039A134BAB
:10042000012000219847B6197F41069B079A034097
:100430000A4004960597134303D0012333431E005B
:10044000059F019BBB4209D802D1009BB34205D84E
:10045000009A019BB61A9F4104430D43039B5A1E09
:100460000392DBD22000290009B0F0BD9D240000DA
:1004700010B54908040000234020A14201D210BD5C
:100480000300581C091B80B28C42F9D94020FF2B75
:10049000F5D813800020F2E7F0B585B01E000AAB56
:1004A0000D00197803004B4303924027AB4217D845
:1004B000002E18D10200330008001B4C3100A04769
:1004C0002A0001003300194C3000A047002201230C
:1004D000121A8B41140C180404430027039B1C8040
:1004E000380005B0F0BD0024012EF6D10A0023002B
:1004F00021000D4EB047009001910B000200210039
:1005000028000A4CA047802306009B019842E7D8A8
:10051000009A019B690FE800A047F400041BE4B2B5
:1005200064033443D9E7C046B52400000504000045
:1005300037B50D4C05002378002B01D000290CD0D5
:1005400001A91320094B0D7098471320084B9847B9
:1005500001230020657023703EBD63780800AB4224
:10056000FAD01D20F8E7C0469100002011130000CA
:1005700089120000394A030000B50800934233D0C5
:1005800007D8374A934214D0364A93421FD00023EB
:1005900017E0354A93423AD0344A934244D0344A21
:1005A0009342F4D1002303290BD801F0F7FD502A20
:1005B0002C2E0023032904D801F0F0FD4302050787
:1005C0002C4B180000BD2C4BFBE72C4BF9E700230C
:1005D0000329F6D801F0E2FD37020406284BF0E7C4
:1005E000284BEEE7284BECE700230329E9D801F07C
:1005F000D5FD2C020406254BE3E7254BE1E7254B0F
:10060000DFE7254BDDE7254BDBE7254BD9E700236B
:100610000329D6D801F0C2FD1D020406214BD0E704
:10062000214BCEE7214BCCE700230329C9D801F0A9
:10063000B5FD120204061E4BC3E71E4BC1E71E4B5D
:10064000BFE71E4BBDE70323BBE71D4BB9E71D4BBF
:10065000B7E71D4BB5E71D4BB3E7C046001000429E
:1006600000080042000C004200180042001C00423A
:100670000014004203000500030006000300070009
:100680000300010003001E0003001F000300090017
:1006900003000A0003000B00030011000300120016
:1006A0000300130003000D0003000E0003000F0001
:1006B00003001700030018000300190003000400E2
:1006C000030008000300100003000C0003001600E4
:1006D00070B586B06946094B6A4670CB70C170CB65
:1006E00070C1002399005158814202D1D8B206B09E
:1006F00070BD0133062BF5D10020F8E72C36000041
:1007000070470000F0B5094C094A2378002B09D145
:100710001E00084F084DD750EE500433182BFAD165
:10072000173B237080001150F0BDC046930000209D
:1007300094000020010700004801002007B50923AC
:100740006A46137001335370013393700133D370D1
:100750000133137101335371024B98476B4618569E
:100760000EBDC046D106000010B5024B00201B682C
:10077000984710BD9400002010B5024B01205B6823
:10078000984710BD9400002010B5024B02209B68D2
:10079000984710BD9400002010B5024B0320DB6881
:1007A000984710BD9400002010B5024B04201B692F
:1007B000984710BD9400002010B5024B05205B69DE
:1007C000984710BD94000020F0B505002960140082
:1007D0000A6889B00F001C23920700D5BAE00126F1
:1007E0000B6833400193019A0523002A00D0B1E041
:1007F00008005A4B9847811C8E40594B14301A6A96
:1008000016431E62631DDB7F02AAC6B2137011007D
:100810003000544B98473000534B9847631DD87FA6
:100820000199524B98472378012B03D13A680B3337
:1008300013433B602B002A0000260C33283240C3B0
:100840009342FCD12B003633AE86EE622E86AE622A
:100850001E705E709E70032328686B723F4B2E7172
:1008600098470700424B43499847434BBF00FD5010
:10087000802302AA13710123937123782F68567184
:10088000D671002B00D196710026A36A0493E36A07
:100890000593236B0693636B0793B30004AA9858E0
:1008A000F1B2002802D13800344B9847431C06D0DF
:1008B00002AB1871000CC0B203A9314B9847013646
:1008C000042EEAD123786B71237CAB71A37CEB718E
:1008D000237D2B7202AB9E1C002333802378012BD7
:1008E00010D11E4B286898471430264BC0B2984749
:1008F000254B01003200A06998471723002829D111
:1009000033783B73A3686268617C1A43E3681A43D7
:10091000237C002903D11D498978890701D58021CD
:100920000A43A17C002902D0802189020B43E17C8B
:10093000002902D0802189000B43217D002902D0AB
:10094000802189010B4339680A433A607A6813436E
:100950007B600023180009B0F0BDC046D10600003E
:10096000000400401113000089120000310500004E
:10097000050700002D0A0000480100207505000051
:10098000E51300002D130000710400000020004159
:10099000931C9B00C3185960012393401A00363002
:1009A0000378134303707047030030B51720002A03
:1009B00011D01C0038342578123885420BD0D9620A
:1009C00001219A865A8620701A685972DB79002BA9
:1009D00002D09075002030BD91751800FBE7000033
:1009E00070B51724002A1CD0C5790534002D18D005
:1009F000050038352E78173CA64212D00A4E0286E2
:100A000033800023428681622C70417943720268F0
:100A10000433012903D1437A59424B410433002462
:100A20009375200070BDC04660010020F8B5684B8A
:100A30008000C458230022003733363225681B78E3
:100A400016781E402B7EAF7D1F40FB0734D56279A0
:100A5000012A31D1637A002B0DD15E4B1B88AB622A
:100A6000638E013B9BB26386638E002B00D12A7597
:100A70006379012B20D1637A002B1DD0E16A2268B3
:100A8000481C0B78E062A079DBB2012851D09BB200
:100A9000DB05DB0D9362A38E013B9BB2A386A38E85
:100AA000002B09D101332B75637A012B04D1E37933
:100AB000002B01D10233AB7504210F4215D06B8B93
:100AC0000B423CD0637A012B0CD023001E2238331A
:100AD0001A700323637202332B75330702D520008B
:100AE000A3699847AB6A04236B8302210F4214D099
:100AF0006379012B11D1637ADBB2012B0DD1E2793D
:100B0000002A0AD1297501316172210038310A7039
:100B10001E4202D02000E36898477FB2002F07DA18
:100B200080232B752B76730602D5636A20009847C5
:100B3000F8BD4878023100020343E162A8E7627A17
:100B40002368D2B29B6A012A13D1638E013B9BB208
:100B50006386638E9BB2002BC7D129752100383183
:100B60000B70033363721642BFD02000E3689847CE
:100B7000BBE7DB05A16ADB0DDAB20A70A26A511C81
:100B8000A162A179012904D11B0A5370A36A013320
:100B9000A362238E013B9BB22386238E9BB2002B44
:100BA000A3D122003832137004332B75627A022AE3
:100BB00004D11E4299D020006369D8E7637A002BE4
:100BC00000D092E7B30700D48FE720002369CEE777
:100BD00048010020600100200268D369002BFCD18D
:100BE000704700000300F0B593B002901960080050
:100BF0008E4B0591170001269847059B05001B6841
:100C00000520334200D0EFE0059B17301C6802231B
:100C10001C4000D0E8E03000EB1898400300844A04
:100C20001435116AEDB20B4313623B002D3303936D
:100C30001B780CA90B7028007E4B984728007E4B30
:100C40009847039B210018787C4B9847FB7A029ABF
:100C5000082553717B1DDB7F9371BB1DDB7FD37137
:100C6000FB7E13723B7F53721368049318006F4B23
:100C700098470EAB1C803B8A143003938023039A61
:100C8000DB019A4214D008D8802310259B019A4298
:100C900000D1ACE0102500240AE0C023039ADB0158
:100CA0009A4200D1A2E0802303251B029A42F1D18F
:100CB0003B680793FB6808937B6909933B7E0A9323
:100CC000FB1DDB7F0B937B6806933B00069A083382
:100CD000002A00D18DE080220699520591420DD163
:100CE000DB7F002B0AD1564BC0B23C6A98470EAA54
:100CF0000100544B20009847002875D17B7E002BC3
:100D000002D0BB7E049A93734F4B02980EAE984765
:100D10003388049A079C9381089B1C43099B1C43BE
:100D2000069B1C43039B1C430A9B1B021C430B9BFF
:100D30005B071C433B000833DB7F002B01D10433EE
:100D40001C437D7E3B7FAD025B021D437B7FFA7AB5
:100D50001B021D437B1DDB7F5B041D43BB1DDB7F33
:100D60001B042B43BD7A15431D433B89FF2B55D0F4
:100D70008022520414431D433B002C331B78002B6C
:100D800003D1324B9B789B0701D580231C430298EB
:100D90002D4B9847049B02985D602B4B9847049B12
:100DA00000251C6080230DAC23703B6B65700E9397
:100DB0007B6BE5707360BB6BA570B360FB6BF3601E
:100DC000AB00F058E9B2002802D10598204B9847B3
:100DD000431C05D02070000CC0B221001D4B984769
:100DE0000135042DECD1002013B0F0BD08253400EE
:100DF0005EE7DB7F002B07D023000095B96A386AD5
:100E00000EAA154CA04777E70D4BC0B23E6A984733
:100E10000095010023000EAA3000F2E7FB7E002BB4
:100E2000AAD08023DB041C43A6E7C046D1060000FD
:100E30000004004011130000891200003105000079
:100E40002D13000071040000D90B000000200041A8
:100E500075050000E51300009904000070B5C27923
:100E60000D001C23002A0CD00468173B227ED207F9
:100E700007D5054B984702232585227E1A42FCD0D0
:100E80000023180070BDC046D90B000070B58279F0
:100E90000E001C23002A10D004250468173B227E74
:100EA0002A420AD0134B9847638BDBB29A061DD0B7
:100EB0000222134203D01A236283180070BD2B4212
:100EC00002D065831E23F8E70122134202D0628319
:100ED0001323F2E71022134202D062834223ECE78D
:100EE0002022134202D062834123E6E7238D338020
:100EF0000023E2E7D90B000010230249CA681A4216
:100F0000FCD070470008004070B5082806D801F0F2
:100F100045F90805052E2E120B1526000024200089
:100F200070BD154B1C69FAE7144B154C1B6A9B05E9
:100F30009B0FDC40F3E7104B5C69F0E70E4D00249B
:100F40002B689B07EBD50F4B98472B685B0711D598
:100F500020000D4B9847AC68A4B24443DFE70B4B2D
:100F600000241B785B07DAD5034BDC68D7E78024C5
:100F70002402D4E7064CD2E7AC0000200008004071
:100F800000127A00F90E00002D13000050080040F6
:100F9000006CDC0270B58478027845780120402628
:100FA0000540204080240849AD010B6AC001B343CD
:100FB0002B43A3430343032002400448120203408F
:100FC00013430B6270BDC04600080040FFFCFFFFEA
:100FD000F8B5082806D801F0E1F81405050C0E1A3A
:100FE000072034001720F8BD0223194A116A0B4369
:100FF00013620020F7E70223154A91690B439361BE
:10100000F7E70223124A118A0B431382F1E7022306
:101010000F4A918A0B439382EBE7022200240D4E84
:101020000B4D33680C4F13433360AA84B847B36841
:10103000EB627368AB62AC84B84733689BB2AB8435
:10104000D7E70223054A11780B431370D1E7C04656
:1010500000080040AC000020F90E000044080040E9
:101060007FB5C2221E21194BD2009A60184A002473
:10107000536801AD8B43536001232B70E0B229000C
:10108000144B01349847252CF8D100246B460126D7
:101090005C709E701C7068460F4B98470F4B062083
:1010A00098470F4B98470F4B29001C725C729C723B
:1010B000DC72062320002B700B4B6E606C702C7260
:1010C0006C7298472000094B98477FBD000800408C
:1010D0000040004111130000950F0000D10F0000E7
:1010E000FD100000000400401D110000C1110000AF
:1010F000014B5878C0097047000C00400823054A8E
:1011000091690B4393610123034A137011781942CB
:10111000FCD1704700040040000C0040F8B50C788A
:101120004B782402060005000443002B02D08023E4
:10113000DB021C434B7A002B02D080231B031C4391
:101140004B68012B12D95D1E1D400222002D06D0D6
:101150001D02802335439B0207E0013552009A426D
:10116000FBD380232D0235435B031C430B7A002BFA
:1011700002D080239B031C430C4FB8470028FBD1AF
:101180000B4B98470B4B1E70B8470028FCD10A4BFD
:101190009D601D00B8470028FCD180226B68520278
:1011A00013401C436C60054B9847F8BDF1100000DC
:1011B000AD010000080C0040000C0040E1010000FF
:1011C00070B50500094CA0470028FBD1084B984793
:1011D000084B1D70A0470028FCD18023064A5B0203
:1011E00051680B435360054B984770BDF1100000E8
:1011F000AD010000040C0040000C0040E1010000C3
:10120000F7B50700184EB0470028FBD1174B984799
:10121000174B1F700193B0470028FCD1154D164B9A
:101220006868C004C00E98470400019B1F706B687B
:10123000DB02DB0F0193114B1F70B0470028FCD17C
:10124000AD680F4B9847019B2D022D0C002B08D148
:10125000012D04D9200029000A4B984704002000E2
:10126000FEBD0135EC40FAE7F1100000AD010000D1
:10127000040C0040000C0040090F0000080C004066
:10128000E1010000B121000010B50400064B9847B1
:10129000064B074A1C7080235188DB010B435380A7
:1012A000044B984710BDC046AD010000020C004041
:1012B000000C0040E101000010B504000E4B9847FF
:1012C0000E4B0F4A1C700F4B0F4C58885988000565
:1012D000114059805988000F214059801100802207
:1012E000D2015C881442FCD15A8800020A400243B1
:1012F0005A80064B984710BDAD010000020C00401B
:10130000FFF0FFFF000C0040FFBFFFFFE101000006
:1013100010B50C78034B240204439847024BA4B247
:101320005C8010BDB9120000000C004010B5040034
:10133000064B9847064B1C70064B5C88064B2405F1
:10134000240F98472000054B984710BDAD010000C1
:10135000020C0040000C0040E101000001120000FE
:10136000D37830B5002B35D11478802C03D080236E
:1013700024065B02234302255478AC4306D19478BB
:10138000002C24D18024A402234341605478013CE2
:10139000012C01D8124C2340A0248DB2E4052C432B
:1013A0001C438462D0240D0C24062C431C4384620D
:1013B000D478002C0AD15B0303D59378012B0CD190
:1013C00081615378013B012B00D8816030BDC0247E
:1013D000E402D9E741600023DEE74161F1E7C0465E
:1013E000FFFFFBFF10B503000A004409C1090020FC
:1013F000814202D10449E00140181F210B401E39EF
:101400009940024B984710BD004400416113000011
:101410007047000010B5054B9847054B9847054BA2
:101420009847054B9847054B984710BD6110000041
:101430001102000011140000F90200001114000054
:10144000FEE700002148224970B5884204D00023FD
:10145000204CCA18A24232D300211F4B1F4A93428C
:1014600031D3FF211E4B1F4A8B43936002220C2570
:10147000082430261C4B1D485A62C378FC398B4324
:101480001343C370C378AB432343C370184B987B9B
:10149000B0430600202030439873987BA843044350
:1014A0009C73987B884302439A738023114A516846
:1014B0000B435360104B9847104B9847FEE7C558B5
:1014C00004331560C5E702C3C9E7C0466C8002005B
:1014D000000000207000002070000020B0010020FB
:1014E0000000000000ED00E0FC70004100500041F1
:1014F000004800410040004109250000B91E0000DD
:1015000070B50E0014001500002808D001204042DC
:101510000CE0074B013D1868064B1B689847611BA0
:101520007118002DF5DCE043C017204070BDC046A7
:101530006C01002064010020013870B50E00022803
:101540000DD80C008D18A01BAC420AD0054B217899
:101550001868054B01341B6898470028F3DA01200E
:10156000404270BD6C01002068010020054B020064
:101570001968002901D104491960186882181A6095
:101580007047C046C4000020B02100200120404226
:10159000704780239B0100204B60704701207047FB
:1015A0000020704710B5044C044B2000984743427C
:1015B00043415842204010BDC8000020A11B00003C
:1015C0000122014B1A707047EE0000200122014BEE
:1015D0001A707047EF0000200122014B1A7070470B
:1015E000ED00002000207047202370B5084C8AB21F
:1015F0006361010000230748074DA847074B1A788D
:10160000002AFCD000221A702023A36170BDC046BE
:101610000044004170010020E1090000EE000020BC
:10162000202310B5074C8AB263610100064B0748BE
:101630009847074B1A78002AFCD000221A70202302
:10164000A36110BD00440041A90900007001002001
:10165000EF000020F7B516001F000A0AC3B21204FB
:101660001B0201AC1343020A1343618009061943AC
:10167000208000910500042168460F4B9847002008
:1016800020806080002E16D005200C4B98470C4B14
:101690000421200098470220227863781202134325
:1016A0003B80013E40429D42ECD10020A278E3788D
:1016B000120213433B80FEBD211600008101000091
:1016C000E9150000F7B56B4680209D1D2B00012217
:1016D00000214C4C0002A04701204B4EB0472B008C
:1016E000052200214948A0470124002803D12C8865
:1016F000631E9C41E4B20120B0476B469D1D2B0048
:101700000122434943483F4FB847002800D06CE0CE
:101710003F4A2B889B1A5A1E9341E4180120B04778
:1017200001222B0011003C48364FB84700285ED1FB
:101730002B88013B5A1E9341E4180120B0472B002F
:101740000122102135482F4FB847002851D12B884E
:10175000103B5A1E9341E4180120B0472B00012290
:1017600006212F48274FB847002844D12B88063B35
:101770005A1E9341E4180120B0472B000122294949
:101780002948204FB847002837D12B88254A934253
:1017900033D12B000122052124481A4FB8470028D5
:1017A0002BD12B88053B5A1E9341E4180120B047EA
:1017B0006B461F4F9D1D39002B0001221A48114E08
:1017C000B047011E1BD12B88BB4218D12B00012230
:1017D0001648B047002812D12B885A1E9341E418AE
:1017E0000120094B98472000FEBD013496E70134E3
:1017F000A3E70134B0E70134BDE70134D6E7013493
:10180000EEE7C0465516000081010000338000005D
:10181000140C0000158000003080000035800000AE
:10182000328000000850000017800000188000007F
:101830000350000037B56B469C1D00230500238034
:10184000114B1A78002A0DD00021012219700F487F
:1018500023000F4DA84700280DD1208800280AD06A
:10186000C0B23EBD002D03D028000A4B9847E7E7E1
:101870000120094BFAE7094B984723000022022177
:101880000748A8470020ECE7ED0000206D8000002D
:10189000551600008101000055010000C51600002A
:1018A00010900000F0B5FE220D000021554C5200B2
:1018B000A54404ABD9800390534B09A89847FE2157
:1018C0002C1F4900514B20009847FE2183B2029300
:1018D000490020004E4B9847002903DD0298013053
:1018E00083B2029308AB5D802B0A2A061B041343C4
:1018F000BE229201134307930421464B07A8984741
:10190000454B05209847454B039A1B7852881B018D
:101910009B1804AAD380002304240193AC4210D363
:1019200006AC05203C4B9847042120003C4B9847CF
:101930003A4A137801331370E07889239B009D4461
:10194000F0BD6420374B98472022374B374E5A6101
:101950000399374B1E3A30009847364B1A78002AC5
:10196000FCD000221A7004AB991D30000232304BBB
:101970009847304E3378002BFCD000233370FC2383
:101980002F1B039ABFB2FF33284811199F422CD84E
:101990003A00274B98473378002BFCD00023337054
:1019A000FD33FF33DA1B92B2214B09A91F48984738
:1019B000204B1A78002AFCD00022E4191A70019BEF
:1019C00001339BB20193029B019A013B9A4201D1E0
:1019D000FF230193019B04AAD2881B02134304AA8C
:1019E000D3802022104B9A6198E7FE22104B5200C0
:1019F00098473378002BFCD00023FD343370FF343C
:101A0000DDE7C046DCFDFFFF63250000C5220000C6
:101A1000912400002116000081010000EC0000204C
:101A2000E91500005501000000440041700100204C
:101A3000A9090000EF0000200023F0B585B002AA3C
:101A400001900E0013705370937004210133100045
:101A5000104FD370B847002804D002256D422800EB
:101A600005B0F0BD03AC042120000B4B9847051EC8
:101A7000F3D1E3780400012BEFD1B442EFD2074B4E
:101A8000311B994200D91900019B1819B847034B23
:101A9000E418F2E721160000E9150000FFFF00003E
:101AA00070B5234986B0234B23489847234B040045
:101AB00023209847042102A8214B9847002C02D0EC
:101AC0000220404231E0802001AD2B0001222100A4
:101AD00000021C4EB0470028F2D16B469C1DD880F6
:101AE0000122230004211848B047002802D123888E
:101AF000042BE5D103AC2000144B98472223039319
:101B000088239B036360012321002372E372A37285
:101B100002200F4B9847002202210E4B0E48984797
:101B2000002102200D4B9847288806B070BDC046A2
:101B3000C03A0100391A0000C43C000081010000D5
:101B4000E9150000551600001A800000610300002E
:101B50007503000045020000D91500006D02000069
:101B600010B502490248034B984710BD7C0600009F
:101B700048360000391A0000012313B5002401A9DA
:101B80004B700B702720044B8C7098478022034BBE
:101B900020001A6016BDC046E503000094440041D1
:101BA000F0B591B04F4904224F4B050001A898476A
:101BB0004E4B984780224E4B01201A604D4B984760
:101BC000002701266B4669465E709F701E700520D7
:101BD000494B98472022494B02AC9A610D236B4434
:101BE000DF773900143A464B08A8267027746774CB
:101BF000A674E67427750397984780235B02E36019
:101C0000404B414FA36201235B42E3623F4B220002
:101C100023633F4B3F49636380235B05A3603E4BD7
:101C20003800A3613D4B98473C683D4B20009847E6
:101C30001F23184086403B4B1E603B68DF69002F26
:101C4000FCD1022223683849134323602E4C013A09
:101C500026002000354B9847022220000124373609
:101C600033783349134333703A00304B9847337815
:101C70002000234333701F4B984780222D4B1420A4
:101C80001A601C4B984720001A4B98472A4B042196
:101C900001A898472000174B984702AE0421300056
:101CA000264FB847041EF8D13378B72B16D1114B05
:101CB0000A209847224BEF612B60224B6B60224B2E
:101CC000AB60224BEB60224B2B61224B6B61224BB2
:101CD000AB61194B2B62200011B0F0BD02246442AD
:101CE000F9E7C0464436000051250000791B00008A
:101CF0009444004181010000E503000000440041DC
:101D000063250000030004007001002003000600AA
:101D1000030007000008004240420F00C90700000E
:101D20003D07000000E100E0C1150000910900003E
:101D3000CD1500009844004121160000E91500006F
:101D4000611B0000A11A0000A5180000C5160000C4
:101D5000E5150000351800005516000073B56B46F8
:101D60009C1D002306000D00238021003000034B42
:101D700098470028F9D123882B7073BD8D0E000081
:101D800070B504000D00A9B22000024B984700284E
:101D9000F9D170BD5D0E0000F8B580250400ED0599
:101DA000002C00D1F8BD054F9620054E3D60B04790
:101DB0003D609620B047013CF2E7C0469C4400419C
:101DC000810100008023F0B5DB0591B06A460093E5
:101DD000FF230024138101239472D4720532D37738
:101DE0006A460632D3776B460733DC7702ABDC7783
:101DF0000BAB1C702D236B441C706B466A461C8217
:101E0000DC761C761C775C761323937680235B0349
:101E10000393184B184D0C93184B54770D930123D3
:101E20005B420E930F93E1235B020893144B154A18
:101E30001D60154B01940A9405941A60134A144BC3
:101E400014491A6028006A46134B9847134F210023
:101E50003B68134E9868B0473B6821005868B0470C
:101E60002B68DA69002AFCD1196802320A431A6029
:101E700011B0F0BD02001600F000002002001700B3
:101E80006C010020811D0000680100205D1D000024
:101E90006401002000140042E50B00000C0000204B
:101EA0007D26000010B50248024B9847FEE7C04669
:101EB0008477010069260000F0B5844B91B0984703
:101EC000834B9847012202AB5A71002302AA9371F7
:101ED0001300012203A91A713E207E4B98478022ED
:101EE0007D4BD2051A607D4B98477D4E7D48B047AB
:101EF0007D48B0477D48B0477D48B0477948B047F6
:101F00007C4B9847041E05D003689847002803D0EF
:101F10007948B047794B98477948B0476368984704
:101F2000002801D07748F4E77748B04777497848E8
:101F3000A3689847774D071E774804D0A847390013
:101F40007648A847E6E7A8477548B04775497648F8
:101F5000A3689847011E7548F3D17548B047714989
:101F60007448A3689847011E7348EAD17348B04784
:101F700066497348A3689847011E01D07148E0E79D
:101F80007148B047E3689847071EC3D16F48B04710
:101F90005448B04702AB9D1C390032226C4B03A859
:101FA0002F80984739002B0001226A48A769B8475B
:101FB000002852D06848B04703A9564B6748984755
:101FC00002AB9E1C330001226549A5696548A847FC
:101FD0003188504B64489847C021012233000901E1
:101FE000A5696248A84731884A4B614898473C4DEB
:101FF0003C48A8473300002202215E48A669B0474A
:102000005D48A84704205D4B9847FA2063699847CC
:10201000060001284AD15A48A8473000574B984734
:10202000FA20636998470600032836D0042836D082
:10203000022836D15348A847E368984702AB0233D9
:10204000002202214B48A769B8474C4BFF2E2BD1E9
:10205000062098474C48A847D7E72B88312502AA85
:102060001371561D02AB0233012200214748A769B4
:102070000193B847019B013D1B8832003370EDB2DC
:10208000002B07D0002805D10136002DEAD100230E
:10209000137091E7002DFAD08EE73D48CBE73D481D
:1020A000C9E70028BCD0C7E73000ADE70028ACD0B6
:1020B000E368984702AB023300220221A7692D484A
:1020C000B8473100134B344898479EE71514000079
:1020D00015010000E503000098440041C51D000003
:1020E000692600007A7B0200AC7B02001C7C0200A7
:1020F0003C7C0200A51500005D7C0200A51E0000CE
:102100007F7C02009E7C0200C27C0200E03B00005B
:10211000AA77010075250000DE7C0200EC7C02003D
:10212000247D0200084600008AB301003F7D0200C2
:10213000897D020092F90100B57D0200F87D020060
:102140009A3F02001D7E0200627E0200897E02002C
:102150006325000020800000A77E0200BD7E0200F3
:102160000850000016800000DA7E02001D8000008A
:10217000047F0200109000001B7F0200991D0000E8
:10218000327F0200407F02006A7F0200218000004F
:10219000527F02005D7F0200807F020002B4714620
:1021A00049084900095C49008E4402BC7047C0469A
:1021B000002243088B4274D303098B425FD3030A86
:1021C0008B4244D3030B8B4228D3030C8B420DD399
:1021D000FF22090212BA030C8B4202D31212090227
:1021E00065D0030B8B4219D300E0090AC30B8B4265
:1021F00001D3CB03C01A5241830B8B4201D38B0313
:10220000C01A5241430B8B4201D34B03C01A5241B7
:10221000030B8B4201D30B03C01A5241C30A8B42FA
:1022200001D3CB02C01A5241830A8B4201D38B02E5
:10223000C01A5241430A8B4201D34B02C01A524189
:10224000030A8B4201D30B02C01A5241CDD2C309FB
:102250008B4201D3CB01C01A524183098B4201D377
:102260008B01C01A524143098B4201D34B01C01A62
:10227000524103098B4201D30B01C01A5241C308DA
:102280008B4201D3CB00C01A524183088B4201D349
:102290008B00C01A524143088B4201D34B00C01A35
:1022A0005241411A00D20146524110467047FFE7A1
:1022B00001B5002000F0F0F802BDC0460029F7D0BB
:1022C00076E7704703460B437FD4002243088B42D6
:1022D00074D303098B425FD3030A8B4244D3030BAD
:1022E0008B4228D3030C8B420DD3FF22090212BA72
:1022F000030C8B4202D31212090265D0030B8B42EE
:1023000019D300E0090AC30B8B4201D3CB03C01AD7
:102310005241830B8B4201D38B03C01A5241430BB2
:102320008B4201D34B03C01A5241030B8B4201D3A2
:102330000B03C01A5241C30A8B4201D3CB02C01A0D
:102340005241830A8B4201D38B02C01A5241430A85
:102350008B4201D34B02C01A5241030A8B4201D374
:102360000B02C01A5241CDD2C3098B4201D3CB011B
:10237000C01A524183098B4201D38B01C01A5241CA
:1023800043098B4201D34B01C01A524103098B42CE
:1023900001D30B01C01A5241C3088B4201D3CB00B9
:1023A000C01A524183088B4201D38B00C01A52419C
:1023B00043088B4201D34B00C01A5241411A00D24C
:1023C00001465241104670475DE0CA0F00D04942B5
:1023D000031000D34042534000229C4603098B4225
:1023E0002DD3030A8B4212D3FC22890112BA030AAD
:1023F0008B420CD3890192118B4208D3890192112F
:102400008B4204D389013AD0921100E08909C309B3
:102410008B4201D3CB01C01A524183098B4201D3B5
:102420008B01C01A524143098B4201D34B01C01AA0
:10243000524103098B4201D30B01C01A5241C30818
:102440008B4201D3CB00C01A524183088B4201D387
:102450008B00C01A5241D9D243088B4201D34B00A2
:10246000C01A5241411A00D20146634652415B10E4
:10247000104601D34042002B00D5494270476346C5
:102480005B1000D3404201B5002000F005F802BD0A
:102490000029F8D016E770477047C0469140031CEA
:1024A00090409C46203A9340194352426346D340A1
:1024B00019437047F0B5CE46474615042D0C2E0043
:1024C00080B50704140C3F0C9946030C7E435D4312
:1024D000674363437F19340CE4199C46A54203D932
:1024E00080235B029846C4444B4651434343360421
:1024F000360C250C24046544A419591849192000E8
:102500000CBC90469946F0BD70B500260C4D0D4CA4
:10251000641BA410A64209D1002625F097FD0A4DA0
:102520000A4C641BA410A64205D170BDB300EB5841
:1025300098470136EEE7B300EB5898470136F2E7CB
:102540005880020058800200588002005C8002001F
:10255000002310B59A4200D110BDCC5CC4540133A5
:10256000F8E703008218934200D1704719700133D5
:10257000F9E700000FB40B4B13B51C68002C05D015
:10258000A369002B02D1200000F0F2FA05AB049AF7
:10259000A1682000019300F0C7FC16BC08BC04B081
:1025A0001847C0460C00002070B505000E0000283A
:1025B00004D08369002B01D100F0DAFAAB69AC6872
:1025C000002B02D1280000F0D3FA244B9C420FD1FB
:1025D0006C68A3891B0702D52369002B20D1210039
:1025E000280000F057F900281AD00120404270BDA1
:1025F0001B4B9C4201D1AC68EBE71A4B9C42E8D1E3
:10260000EC68E6E7013B0136A360002B04DAA2691F
:10261000934216DB0A2914D023685A1C22601970D1
:102620003178A3680029EDD1013BA360002B0FDABC
:1026300022000A31280000F0D7F8431CD5D00A2028
:10264000D5E72200280000F0CFF8431CE8D1CCE702
:102650000A2023685A1C22601870C8E7D87F02003D
:10266000F87F0200B87F020010B5034B0100186824
:10267000FFF79AFF10BDC0460C0000204A424A41B5
:10268000802310B55200DB0000F002F810BD0000FE
:10269000F0B51D004F4B85B01E6804000F0000927E
:1026A000002E05D0B369002B02D1300000F060FA93
:1026B000494B9C4250D17468009B022B05D0012BE2
:1026C00000D984E0002D00DA81E02100300000F024
:1026D000E1F9616B002908D023004433994202D00C
:1026E000300000F051FB002363630023A3616360AB
:1026F000A3891B0603D52169300000F045FBA3899F
:10270000364A1340A381009B022B5AD003AB02AA86
:102710002100300000F0C2FAA3891843A081002DE7
:1027200024D1029D280000F025FB0195071E42D10F
:10273000029B0193AB4239D1012040420223A2897E
:102740001343A3810023A360230047332360236145
:102750000123636105B0F0BD214B9C4201D1B468F7
:10276000AAE7204B9C42A7D1F468A5E7002FD9D057
:10277000B369002B02D1300000F0FAF9009B012B65
:1027800003D1A389009A1A43A2810820A389276054
:1027900027616561184018D0012018400023984235
:1027A00011D06D42A360A5611800D3E7019800F035
:1027B000E1FA071EC0D08023A289019D1343A381A3
:1027C000D6E70020BAE7A560C4E7A060C2E7012011
:1027D0004042BFE70C000020D87F02005CF3FFFFFF
:1027E000F87F0200B87F0200F8B505000E00140063
:1027F000002804D08369002B01D100F0B9F9224BE5
:102800009C422DD16C68A369A360A3891B0731D5B5
:102810002369002B2ED023682269F7B2981A6369C6
:10282000F6B2984205DB2100280000F033F90028B9
:1028300026D1A3680130013BA36023685A1C2260A3
:102840001F706369984204D0A389DB071AD50A2E4A
:1028500018D12100280000F01DF9002812D00FE047
:102860000A4B9C4201D1AC68CDE7094B9C42CAD1CE
:10287000EC68C8E72100280000F00CF80028CAD056
:10288000012676423000F8BDD87F0200F87F0200B2
:10289000B87F0200364B70B51D6806000C00002D95
:1028A00005D0AB69002B02D1280000F061F9314B53
:1028B0009C420FD16C680C23E25E93B219072DD4B1
:1028C000D90611D409230120336037331343A38180
:1028D000404270BD284B9C4201D1AC68EBE7274BCE
:1028E0009C42E8D1EC68E6E75B0713D5616B0029F1
:1028F00008D023004433994202D0300000F044FA5B
:10290000002363632422A3899343A381002363608C
:10291000236923600823A2891343A3812369002B21
:102920000BD1A0218022A389890092000B40934201
:1029300003D02100300000F0D9F90123A28913400F
:1029400011D00023A36063695B42A3610020236967
:102950008342BED10C23E25E1306BAD54023134353
:10296000A3810138B5E7920700D46369A360EDE75E
:102970000C000020D87F0200F87F0200B87F020020
:10298000F7B58A8905000C00130760D44B68002B4B
:1029900004DC0B6C002B01DC0020FEBDE76A002F7D
:1029A000FAD000232E682B6080235B011A4034D0BC
:1029B000606DA3895B0706D56368C01A636B002B43
:1029C00001D0236CC01A0200216A00232800E76AA4
:1029D000B847A189431C06D12B681D2B31D82C4A3E
:1029E000DA40D3072DD50023636023692360CB042D
:1029F00005D5431C02D12B68002B00D16065616BAB
:102A00002E600029C8D023004433994202D0280008
:102A100000F0BAF900206063BFE70123216A2800B3
:102A2000B847431CC5D12B68002BC2D01D2B01D049
:102A3000162B01D12E60AFE74023A2891343A38157
:102A4000ABE740230B430120A3814042A5E70F6978
:102A5000002FA1D00B680F60DB1B019300239207AE
:102A600000D14B69A360019B002B00DC94E7019B24
:102A70003A00216A2800A66AB047002803DC4023F8
:102A8000A2891343DFE7019B3F181B1A0193EAE772
:102A9000010040200B6970B505000C00002B01D12E
:102AA000002070BD002804D08369002B01D100F004
:102AB0005FF80B4B9C4209D16C680C22A35E002B83
:102AC000EED021002800FFF75BFFEAE7054B9C42B0
:102AD00001D1AC68F1E7044B9C42EED1EC68ECE725
:102AE000D87F0200F87F0200B87F020010B50249CB
:102AF00000F0B2F810BDC046952A0000002310B5C2
:102B0000040003604360836081814366C281036186
:102B100043618361190008225C30FFF722FD054BF9
:102B200024626362044BA362044BE362044B23639D
:102B300010BDC04695340000BD340000F5340000DF
:102B40002135000070B568254A1E55430E00290046
:102B5000743100F063F9041E08D000212A000160DE
:102B600046600C30A0606832FFF7FBFC200070BDAF
:102B7000836913B50400002B28D18364C364036503
:102B8000134B144A1B6882620193984201D10123BE
:102B90008361200000F020F86060200000F01CF845
:102BA000A060200000F018F80022E06004216068B6
:102BB000FFF7A4FF01220921A068FFF79FFF02226F
:102BC0001221E068FFF79AFF0123A36113BDC046FD
:102BD000B47F0200ED2A0000F8B51E4B07001E6806
:102BE000B369002B02D13000FFF7C2FF4836B4684A
:102BF0007368013B04D53368002B07D03668F6E7CD
:102C00000C22A55E002D0DD06834F2E704213800B7
:102C1000FFF798FF30600028F0D10C2304003B60E0
:102C20002000F8BD012320005B42E3810233A38131
:102C300065662560A560656025616561A5610822FE
:102C400029005C30FFF78DFC6563A563A564E5642E
:102C5000E6E7C046B47F0200F7B50400070000268F
:102C600001914834002C01D13000FEBD6368A56895
:102C70000093009B013B009301D52468F2E7AB89E8
:102C8000012B08D90E22AB5E013304D02900380095
:102C9000019B984706436835EBE7000070B50E00CE
:102CA0001D000E23C95E90B01400002907DA00232E
:102CB0002B60B3891B0611D48023DB000FE001AA2F
:102CC00000F05AFC0028F2DBF022029B12021340B3
:102CD000054A9B185A4253412B60EDE740230020E0
:102CE000236010B070BDC04600E0FFFFF7B50226BC
:102CF0008B8905000C00334206D023004733236044
:102D0000236101236361F7BD01AB6A46FFF7C6FF8C
:102D100000990700280000F081F8002808D10C2253
:102D2000A35E9A05EFD4032293431E43A681E4E7F2
:102D30000F4BAB628023A28920601343A381009BC9
:102D400020616361019B002B0DD00E23E15E280002
:102D500000F024FC002806D00322A38993431A0024
:102D600001231343A381A0893843A081CBE7C04648
:102D7000ED2A000010B5034B0100186800F04EF872
:102D800010BDC0460C00002070B50500002910D011
:102D90000C1F2368002B00DAE418280000F02FFC39
:102DA0001D4A1368002B05D163601460280000F0F1
:102DB00027FC70BDA34209D9216860188342F3D172
:102DC00018685B6841182160EEE713005A68002A12
:102DD00001D0A242F9D919685818A0420BD1206835
:102DE0000918581819608242E0D1106852684118D9
:102DF00019605A60DAE7A04202D90C232B60D5E7AC
:102E000021686018824203D110685268411821601D
:102E100062605C60CAE7C046FC000020032370B516
:102E2000CD1C9D43083506000C2D1ED20C25A94251
:102E30001DD8300000F0E3FB254A1468210000296A
:102E400019D1244C2368002B03D1300000F010FB73
:102E500020602900300000F00BFB431C2CD10C2318
:102E60003000336000F0CCFB03E0002DDFDA0C23F0
:102E70003360002070BD0B685B1B1AD40B2B03D989
:102E80000B60CC18256003E08C420ED163681360A0
:102E9000300000F0B5FB200007220B30231D9043CB
:102EA000C31AE7D05A42E250E4E74B6863600C0073
:102EB000EEE70C004968C2E70323C41C9C43A04210
:102EC000E0D0211A300000F0D3FA431CDAD1C6E773
:102ED000FC00002000010020936810B5013B9360C6
:102EE000002B05DA9469A34208DBCBB20A2B05D08C
:102EF0001368581C10601970C8B210BDFFF774FC3D
:102F0000FBE7F8B506000F001400D518AC4201D15C
:102F1000002007E021783A003000FFF7DDFF0134A0
:102F2000431CF3D1F8BD0000F0B59FB006000F00C0
:102F300014000593002804D08369002B01D1FFF70A
:102F400017FE7F4B9F425CD17768BB891B0762D518
:102F50003B69002B5FD0002306AD6B6120336B769D
:102F60001033AB760294029C2378002B5DD1029B38
:102F7000E31A04930DD0049B029A39003000FFF746
:102F8000C0FF431C00D1CCE06A69049B94466344B3
:102F90006B612378002B00D1C3E001220023524251
:102FA0006A6002A95432521801342B60EB60AB60A6
:102FB0001370AB6521780522624800F015FB631C95
:102FC0009C46002835D12968CB0604D5532302AA94
:102FD00020309B1818700B0704D553232B2002AA0E
:102FE0009B18187023782A2B2CD000200A21099BCB
:102FF0002278303A092A00D86BE000282AD00993B9
:1030000028E0514B9F4201D1B7689EE74F4B9F424A
:103010009BD1F76899E739003000FFF73BFC0028A7
:1030200099D0012040421FB0F0BD252B9FD0013424
:103030009AE7444B2968C01A012383400B432B6055
:103040006446B7E7059B181D1B680590002B3ADB0B
:103050000993644623782E2B0BD16378621C2A2BAC
:103060003FD1059B02341A1D1B680592002B35DBEE
:10307000079321780322364800F0B6FA002807D0DB
:10308000334B2A68C01A4023834013432B6001341A
:103090002178631C06222F480293297600F0A4FAB7
:1030A000002844D02C4B002B2FD12968059B0722E8
:1030B000C90528D59B189343083305936B69039A78
:1030C0009B186B614FE75B42EB6002230B432B6065
:1030D000BFE74B4301349B18012089E701235B4282
:1030E000C6E7002314000A201A006B6021783039EB
:1030F000092903D9002BBCD00792BAE74243013417
:1031000052180123F2E70733D5E705AB00933A00E5
:10311000124B2900300000E000BF0390039B0133F5
:10312000CCD1BB895B0600D57BE70B987BE705AB71
:1031300000933A00094B2900300000F07FF8ECE7DB
:10314000D87F020018800200F87F0200B87F0200DA
:103150001E8002002280020000000000032F0000F9
:10316000F7B5150001938A680B6900900C00934233
:1031700000DA130022002B6043321278002A01D0BB
:1031800001332B6023689B0602D52B6802332B602A
:10319000062723681F4027D0230043331B785A1E7D
:1031A00093412268920630D422000199433200985C
:1031B000089EB047431C25D0062320682A68E16892
:1031C00003400025042B03D18D1AEB43DB171D4070
:1031D000A3682269934201DD9B1AED180027BD42C6
:1031E00020D1002010E00137E3682A689B1A9F4233
:1031F000D2DA22000123193201990098089EB047C3
:10320000431CF0D101204042FEBD3020E118433183
:10321000087021005A1C45310978A2184332023344
:103220001170C1E7220001231A3201990098089E0B
:10323000B047431CE6D00137D1E70000F0B58BB0B2
:1032400006920A0043320793059004920A7E0C000E
:10325000109B6E2A00D18FE017D8632A2CD008D893
:10326000002A00D199E0582A54D026004236327004
:1032700029E0642A01D0692AF7D121681A68080672
:1032800023D5111D1960156825E0732A00D188E047
:1032900008D86F2A29D0702AE7D1202209680A436A
:1032A000226003E0752A20D0782ADED1220078211E
:1032B000453211706C4A30E00E001A684236111D1A
:1032C000196013683370012379E04906D9D5111DBF
:1032D00019600023D55E002D03DA2D23049A6D4278
:1032E0001370624B0A2703932FE0206819680506C4
:1032F00003D5081D18600D6805E04006F9D50D6876
:10330000081D1860ADB2594B082703936F2A18D0D7
:103310000A2716E045310A70544A03921A68216858
:10332000101D18601568080622D5CB0702D520238A
:10333000194321601027002D03D1202322689A43CE
:1033400022602300002243331A706368A360002BBD
:103350005CDB0422216891432160002D58D1049E3A
:10336000002B64D02600039B42361B7833705EE04E
:103370004806DAD5ADB2D8E709681A68080605D557
:10338000111D1960136862691A6006E04906F7D5D5
:10339000111D19601368A28A1A800023049E2361FC
:1033A00054E01A68111D1960166800216268300027
:1033B00000F01AF9002801D0801B60606368236167
:1033C0000023049A137041E023693200069905989E
:1033D000079DA847431C43D0236800259B070FD4B3
:1033E000099BE06898423DDA18003BE02200012387
:1033F000193206990598079EB047431C30D0013515
:10340000E368099A9B1A9D42F0DBE9E7002DA9D0F9
:10341000049E28003900FEF751FF039B013E5B5CD0
:10342000280033703900FEF7C3FE051EF1D1082FC6
:1034300009D12368DB0706D563682269934202DC61
:103440003023013E3370049B9B1B2361079B09AA19
:1034500000932100069B0598FFF782FE431CB3D121
:10346000012040420BB0F0BD3A80020029800200EA
:10347000002370B5064C050008002360FEF776F8BF
:10348000431C03D12368002B00D02B6070BDC046C5
:10349000AC01002070B50C000E25495F00F0B2F8B9
:1034A000002803DB636D1B18636570BDA389024AA6
:1034B0001340A381F9E7C046FFEFFFFFF8B51F00F7
:1034C0008B8905000C001600DB0505D50E23C95EAF
:1034D0000022022300F074F8A389054A2800134053
:1034E000A38132000E23E15E3B0000F01FF8F8BD1F
:1034F000FFEFFFFF70B50C000E25495F00F060F88C
:10350000A389421C03D1054A1340A38170BD8022C8
:1035100052011343A3816065F8E7C046FFEFFFFF48
:1035200010B50E23C95E00F015F810BD70B505008A
:10353000080011000022064C22601A00FDF7FCFF73
:10354000431C03D12368002B00D02B6070BDC04604
:10355000AC010020002370B5064C05000800236074
:10356000FEF714F8431C03D12368002B00D02B6016
:1035700070BDC046AC010020002370B5064C0500AC
:10358000080011002360FEF704F8431C03D12368F0
:10359000002B00D02B6070BDAC010020002370B563
:1035A000064C050008002360FDF7F8FF431C03D11B
:1035B0002368002B00D02B6070BDC046AC010020FA
:1035C00070B50500080011000022064C22601A00A8
:1035D000FDF7E6FF431C03D12368002B00D02B60CE
:1035E00070BDC046AC010020C9B28218904201D122
:1035F0000020704703788B42FBD00130F6E770471C
:103600007047000070B50500080011000022064C4C
:1036100022601A00FDF774FF431C03D12368002BBE
:1036200000D02B6070BDC046AC01002000080042F5
:10363000000C00420010004200140042001800423A
:10364000001C0042B7B7B7B741554449454E434502
:1036500000020000BA9E5F5A050000000000000052
:1036600017000000F022002056760510D11E010040
:103670000101B0115BF218FC11E8BDA4F8344167F8
:1036800046F600008C28002000000000000000002A
:103690005665723A413131302E31312E36315F422A
:1036A00037333432355F4B4E5F5651000000000017
:1036B000000000000000000000000000000000000A
:1036C0000000000074000000C8200020F94D454DA6
:1036D000C00E1602030000000300000001000000FD
:1036E00005000000010000000400000002000000CE
:1036F000AF01FA0141008C0006000F003E000300FC
:103700000100000010000C0002000000000000009A
:10371000000000000000000001000000010D010099
:1037200040000000070000000B0000000000000047
:103730000F0000000100000000000000007D0000FC
:1037400004000000803E000004000000007D000036
:1037500010000000803E0000090000000A10040074
:10376000D375B5D30A000000F02600200002200027
:10377000000000008403000078000000040004043E
:10378000000000000001000020000000002D3101B9
:103790000000000000000200000800000A002000F5
:1037A0004A00410081008100190000010100000170
:1037B00001000101010001010100010001000100FF
:1037C0000100900100000000000000000F00000058
:1037D00001000000000000000100000001000000E6
:1037E00001000000010000000100000000000000D6
:1037F00000000000010000001000000000000000B8
:10380000000000000D000000010000000D0000009D
:1038100001000000E8030200810100000100000037
:103820000100000000000000002004200100000052
:103830000100010001000100010001000100010080
:10384000010001000100010090010000542300204C
:10385000000000000000000033330000001E0102E1
:103860000058010200520102004C0102004901020D
:1038700000460102004301028041010200000002F3
:1038800004500202000100000101000002020000D9
:10389000804F120001000000C80000006A00000014
:1038A0004C23002001FF0006000000000000000083
:1038B000D977010000000000D97701000000000066
:1038C000D90000000000000099FF01000000000086
:1038D000DD00000000000000DD000000000000002E
:1038E000DD00000000000000DD000000000000001E
:1038F000DD00010000000000D90000000000000011
:10390000D977000000000000DAEE0000000000009F
:10391000DD77000000000000DD5500000000000021
:10392000DD22000000000000DD00000000000004B7
:1039300040190100DC820000F81E000000000000B9
:103940000000000000000000000000000000000077
:103950000000000000000000000000000000000067
:103960000000000000000000000000000000000057
:103970000000000000000000000000000000000047
:103980000000000000000000000000000000000037
:103990000000000000000000000000000000000027
:1039A0000000000000000000000000000100000016
:1039B0000000000000000000000000000000000007
:1039C00000000000000000000000000000000000F7
:1039D00000000000000000000000000000000000E7
:1039E00000000000000000000000000000000000D7
:1039F00000000000000000000000000000000000C7
:103A000000000000000000000000000000000000B6
:103A100000000000000000000000000000000000A6
:103A20000000000000000000000000000500000091
:103A3000010000060000000100000000010000007D
:103A4000FF00000001000000000000009A000000DC
:103A5000502500203380000042800B00308005009C
:103A60000C8002140D8009000C8002100D800900EA
:103A70003280290033800000308004000C80000A6E
:103A80000D800F000C8002100D80030042800300A7
:103A90001580000C329004003380000042800A0040
:103AA000308004000C8002140D8008000C8002108D
:103AB0000D80080032802900338000003080010032
:103AC00035801000348002002A8000003280060019
:103AD0001580000C17800350188000003380000010
:103AE0003080010035801000348002002A800100FF
:103AF000328006001580000C1780035018800000EB
:103B000033800000308001003580100034800200D6
:103B10002A800200328006001580000C17800350B6
:103B200018800000338000003080010035801000D4
:103B3000348002002A800000328008001580000CCA
:103B40001580000D1780035018800000338000009E
:103B50003080010035801000348002002A8001008E
:103B6000328008001580000C1580000D178003506E
:103B70001880000033800000308001003580100084
:103B8000348002002A800200328008001580000C78
:103B90001580000D17800350188000000C80070A64
:103BA0000D8000000C80040A0D8001000C80000ACA
:103BB0000D8017000C800C0A0D8001000C800A0A91
:103BC0000D8001000C80020A0D8000000C80030AA9
:103BD0000D8000000C80080A0D8001000C80050A91
:103BE0000D8001000C80010A0D8001000C80060A86
:103BF0000D80000009000000000008000000000027
:103C0000000000005025002008000000000009000E
:103C100000000000000000007025002007000000E8
:103C200000000800000000000000000094250020B3
:103C30000600000000000900000000000000000075
:103C4000B42500200500000000000900000000006D
:103C500000000000D825002004000000000009003A
:103C60000000000000000000FC2500200300000010
:103C700000000A00000000000000000020260020D4
:103C80000200000000000A00000000000000000028
:103C9000482600200100000000000A00000000008B
:103CA0000000000070260020330000000000160015
:103CB0000000000000000000982600200000000026
:103CC0007236758741554449454E43450002000010
:103CD0004D9E5F5A09000000C40B602010000000D8
:103CE0009028002056760510D11E0100010156656E
:103CF000723A413131302E31312E36315F42373315
:103D00003432355F4B4E5F5651000000000000001A
:103D100000000000000000000000000000000000A3
:103D200000000000010000009800002000000000DA
:103D3000FB080000002900200903380900070B05D3
:103D4000E008078000000000013E023E0418050262
:103D50000100023E04180503101000111100121298
:103D600000131300141400151500160C00170D0095
:103D70000000000000000000101C6020641C602097
:103D8000241C60204C1C6020441D60206C1D6020A1
:103D9000A41D6020C81D6020501E6020E01E602011
:103DA0003C1F602038206020781F6020EC1F6020BE
:103DB0008420602028216020442160205C21602034
:103DC0007421602094216020B0216020CC216020EB
:103DD000182260203C22602090226020F022602087
:103DE00010236020A82260202C2360200000000007
:103DF00000000000000000008083000083830100B9
:103E00000B830B008C830C008D830D000E8302004E
:103E1000108303001A830400208305002183060019
:103E200024830700AE830800AF830900B1830E002E
:103E30006D830A00C0831500D28316002283170009
:103E40009C831800EF831B00C2831900C4831A00EF
:103E5000A5860000A8860100A6840000AA840100AF
:103E60006E84020016850000978501009885020087
:103E700027850300EC8504001381020014810300F0
:103E8000958104001D810400B0810700B28100000B
:103E9000B3810100B4810500B5810600B60E0000B3
:103EA000B70E0100B80E0200390E0300F2830F00B6
:103EB000F38310007483110075831200F6831300DE
:103EC000F783140091890000A3831C000000000008
:103ED00000000000000000000000000000000000E2
:103EE00000000000000000000000000000000000D2
:103EF0000001020301000000000A4002010C22033D
:103F00002402240624250700101001500800055043
:103F10000C000550201001501000025000100150FC
:103F20000400055004100650FEFFFFFF07000000CC
:103F30000800000016000000F7FFFFFF010000006E
:103F4000FBFFFFFF02000000E0FFFFFF0400000096
:103F5000FF6BFEFF20000000FEFFFFFF07000000D8
:103F60000800000016000000F7FFFFFF010000003E
:103F7000FBFFFFFF0200000005000000140000002E
:103F8000E5FFFFFF04000000FF6BFEFF20000000C4
:103F90000000000000000000F7FFFFFF0600000027
:103FA0000100000017000000008001001000000068
:103FB0001F000000140000000400000012000000B8
:103FC0009BFFFFFF21000000FFEBFFFF0000000050
:103FD000FEFFFFFF070000000800000016000000C1
:103FE000F7FFFFFF01000000FBFFFFFF22000000C2
:103FF0000000000000000000F7FFFFFF21000000AC
:104000000B0B0D0D0D0E0F000B0B0C0C0C0E0F00FF
:104010000B0B0B0B0B0E0F000001020307040A0A27
:1040200000000000000000000C010700FFFFFFFF80
:10403000000000000000000008050700FFFFFFFF70
:1040400000000000000000000C08FFFF000000005E
:104050000000000000000000000000000000000060
:104060000000000000000000FF0300010C01070039
:10407000FFFFFFFF0000000000000000080607002F
:10408000FFFFFFFF00000000000000000C08FFFF22
:104090000000000000000000000000000000000020
:1040A000000000000000000000000000FF0300020C
:1040B0000C010700FFFFFFFF0000000000000000F0
:1040C000FFFFFFFF000000000000000000000000F4
:1040D0000C101418FFFF000000000000000000009A
:1040E00000000000000000000000000000000000D0
:1040F000078000060C030700FFFFFFFF0000000021
:1041000000000000FFFFFFFF0000000000000000B3
:10411000000000000C101418FFFF00000000000059
:10412000000000000000000000000000000000008F
:1041300000000000078000070C0107000D020700C7
:10414000FFFFFFFF00000000FFFFFFFF0000000077
:1041500000000000000000000C100D111418FFFFFB
:10416000000000000000000000000000000000004F
:104170000000000000000000078000080C0107009C
:10418000FFFFFFFF0000000000000000080507001F
:10419000FFFFFFFF00000000000000000C08FFFF11
:1041A000000000000000000000000000000000000F
:1041B000000000000000000000000000FF63002974
:1041C0000C010700FFFFFFFF0000000000000000DF
:1041D00008060700FFFFFFFF0000000000000000CE
:1041E0000C08FFFF000000000000000000000000BD
:1041F00000000000000000000000000000000000BF
:10420000FF63002A0C010700FFFFFFFF0000000012
:1042100000000000FFFFFFFF0000000000000000A2
:10422000000000000C18FFFF00000000000000006C
:10423000000000000000000000000000000000007E
:10424000000000000780002D0C010700FFFFFFFFAA
:104250000000000000000000FFFFFFFF0000000062
:1042600000000000000000000C202418FFFF0000E8
:10427000000000000000000000000000000000003E
:104280000000000000000000FF80002E0000000081
:10429000000000000000000000000000000000001E
:1042A000000000000000000000000000000000000E
:1042B00000000000000000000000000000000000FE
:1042C000000000000000000000000000000000FFEF
:1042D0000000000000000000401F00000000E8593E
:1042E000803E00000000E85BC05D00000000EE5C66
:1042F000007D00000000E85D80BB00000000EE5E75
:10430000007701000000EE6000EE02000000EE62A7
:1043100000000000000000000100F50F08040F007D
:104320000100FB0F08041F000100FE0F08043F00FE
:104330000100F90F080417000100FD0F08042F0009
:104340000100FF0F08045F000100FB0F08041F00BD
:104350000100FE0F08043F00010000100C047F0064
:104360000100FB0F08040F000100FE0F08041F00EE
:10437000010000100C043F000100FD0F08041700AD
:104380000100FF0F08042F000100001008045F0067
:104390000100FE0F08041F00010000100C043F0084
:1043A0000100001006047F000100FF0F08040F0049
:1043B0000100001008041F000100001004043F0069
:1043C0000300FF0F080417000300FF0F04042F0071
:1043D0000300FF0F02045F000100001008041F002B
:1043E0000100001004043F000100001002047F00DF
:1043F0000100001008040F000100001004041F0059
:104400000100001002043F000300FF0F0404170026
:104410000300FF0F02042F000300FF0F01045F00E1
:104420000100001004041F000100001002043F00FE
:104430000100001004040F000100001002041F001E
:104440000300FF0F020417000300FF0F01042F00F9
:104450000100001002041F00000000000000000026
:104460000100001004041F000100001002041F00DE
:104470000000000001000000020000000300000036
:10448000070F1F00000000000F010701FF000700D9
:10449000FF00FF00FF000B020B0107010B000700EC
:1044A000030001000F020702FF030701FF03FF00E3
:1044B000FF0017020B020F010B01070107000300A9
:1044C000FF0017020F021701070203020301FF0397
:1044D000FF03FF03FF03FF03FF03FF03FF03FF03CC
:1044E000170211020B020B01050100000000000081
:1044F00000000000000000001F020F02FF030F0178
:10450000FF03FF00FF00FF03FF03FF0300000000A5
:104510000000000000000000FF03FF030B02FF0388
:104520000502FF03FF03FF03FF03FF03000000007A
:104530000000000000000000FF03FF031702FF035C
:104540000B02FF03FF03FF03FF03FF030000000054
:1045500000000000000000000F0217021F02FFFF12
:10456000FFFFFFFFFFFF0000FF030702FF030F0233
:104570001F02FFFFFFFF00005C7D60205C7D60206C
:104580007C7D60207C7D60204B574D4F44454C5FC7
:104590005645523A62020110015004000100000029
:1045A000FFFF0250080001000000FFFF03500C0055
:1045B0000000020000000750100000000500FFFF8F
:1045C0000850140000000A00040009501800000000
:1045D0000A0006000A501C0000004B00FFFF0D50AF
:1045E000200000000A0008000E5024000000050012
:1045F0000A000F502800000001000C0010502C0091
:10460000000064000E001150300000000A0010008D
:1046100012503400E80310271200135038000080B5
:1046200068C5140014503C0000000100160015502D
:1046300040000000F40118001650440000000A0079
:104640001A0017504800000032001C0018504C009F
:10465000000001001E00195050000000010036004B
:104660001A505400CEFF640022001B505800000076
:10467000640024001C505C000000640026001D50F3
:1046800060000000640028001E5064009CFF0000D1
:104690002A001F50680000000100200020506C001C
:1046A000F0D810272C0021507000000001002E00CF
:1046B0002250740018FCE8033000235078000000FA
:1046C000E803320024507C0000000A00340000009F
:1046D0000000000000000000B4320020EC32002096
:1046E0000000000024330020E83300200000050013
:1046F0000500050005000000010005000200591337
:1047000010B80000E00006001E00000001000000DC
:104710000A0014000F00ECFFECFF010064003200FF
:10472000000001000001000000001A00000D000060
:10473000000F0000000100000000003E0200000029
:10474000040000000000004A00000048803E000015
:104750003D0AD743333333490004C8000001000247
:104760000002090001002100AE47E13F0E000700F2
:104770000300000001000100010000000E00000025
:10478000503400200001000090340020C89090C7F1
:104790000E0000009038002021000000D0380020DA
:1047A000915DF03B00000000020018004002000094
:1047B000603900202100000060420020210000003C
:1047C000B04200206E4E251B9A999940000080420D
:1047D000986E12B70000000018000000404300204F
:1047E00018000000A0430020210000000044002029
:1047F0000E0001000E00000000000040000000005C
:104800000000000078004D00BA490C38000000405C
:104810005401000000020000304400200A000000A3
:104820001F000000000000000000E8D3140000009A
:10483000000071DA295C8F32FFFFFFFD007D00016F
:1048400000000000000000000000E84B0000C0C9AC
:104850008C000E00A0320020414C474F5F4C41427B
:10486000454C3A206F7A61726B5F3131302E302EB9
:10487000305F4D61745F6331305F484D444C5F631E
:1048800033310000000000000000004033C29042BD
:10489000F0AD0C4483E7C844E73879459F050D46E1
:1048A000360C5446143E90468461C046A97BE346CC
:1048B00094D5F8460000004794D5F846A97BE34616
:1048C0000000000000000000295C8F3815A58F381B
:1048D000D87F903869EC9138B9EA9338B57A963830
:1048E000449C9938464F9D389793A1380D69A63856
:1048F00077CFAB38A0C6B1384E4EB8383F66BF3818
:104900002D0EC738CC45CF38CB0CD838D362E13820
:104910008747EB3885BAF53866BB0039BD490C3995
:1049200018651839FD0C2539F14032396F004039CE
:10493000F14A4E39E81F5D39C17E6C39E4667C3935
:10494000B3D78C398CD09D39C750AF39B557C139E1
:10495000A5E4D339DEF6E639A48DFA391A54073ABC
:10496000E4A2113AC9321C3A6103273A4114323A9F
:10497000FB643D3A1FF5483A3AC4543AD8D1603AFC
:10498000811D6D3ABAA6793A096D863AEE6F933A6F
:10499000E9AEA03A7529AE3A0FDFBB3A2DCFC93A3E
:1049A00046F9D73ACD5CE63A34F9F43AEACD033B1E
:1049B0005CDA123BF51D223B1E98313B3D48413BE2
:1049C000B82D513BEF47613B4596713B1718823B31
:1049D000C1CC923B9FB3A33B09CCB43B5515C63B1E
:1049E000D88ED73BE637E93BCE0FFB3BF08A063C3F
:1049F000B5A40F3CDCD4183C091B223CE1762B3CCF
:104A000007E8343C1E6E3E3CC708483CA2B7513C08
:104A1000507A5B3C7150653CA3396F3C8335793CDF
:104A2000AF43833CC3638D3C5A95973C11D8A13C5E
:104A3000802BAC3C428FB63CF002C13C2386CB3C81
:104A40007118D63C73B9E03CBF68EB3CEB25F63CF3
:104A50008CF0003D39C80B3D85AC163D059D213DD0
:104A60004B992C3DECA0373D7AB3423D87D04D3D6C
:104A7000A6F7583D6728643D5B626F3D15A57A3DFA
:104A800023F0853D1643913D7F9D9C3DEBFEA73D68
:104A9000EC66B33D0FD5BE3DE348CA3DF7C1D53DF9
:104AA000D93FE13D18C2EC3D4148F83DF1E8013EF7
:104AB00045AF073EE2760D3E903F133E1409193E86
:104AC00037D31E3EBE9D243E70682A3E1433303ECE
:104AD00070FD353E4AC73B3E6B90413E9758473E7E
:104AE000971F4D3E30E5523E2AA9583E4B6B5E3E25
:104AF0005A2B643E1FE9693E60A46F3EE55C753E3B
:104B000075127B3ED7C4803ED473863E321F8C3EE6
:104B1000B9C6913E326A973E64099D3E19A4A23EF1
:104B2000183AA83E29CBAD3E1757B33EA9DDB83E93
:104B3000AA5EBE3EE3D9C33E1C4FC93E21BECE3E57
:104B4000BB26D43EB588D93EDAE3DE3EF437E43EF8
:104B5000CF84E93E35CAEE3EF407F43ED63DF93E39
:104B6000A96BFE3E3991033F53AE083FC4C20D3FCF
:104B70005ACE123FE4D0173F2ECA1C3F09BA213F3C
:104B800043A0263FAB7C2B3F124F303F4817353FA9
:104B90001DD5393F62883E3FE930433F84CE473FD1
:104BA00005614C3F3EE8503F0364553F27D4593FD1
:104BB0007E385E3FDE90623F1ADD663F081D6B3F28
:104BC0007E506F3F5377733F5D91773F749E7B3F7D
:104BD0006F9E7F3F2791833F7576873F324E8B3F95
:104BE00038188F3F62D4923F8A82963F8C229A3F38
:104BF00044B49D3F9037A13F4BACA43F5412A83F13
:104C00008969AB3FC9B1AE3FF3EAB13FE814B53FA4
:104C1000882FB83FB53ABB3F5036BE3F3B22C13F1D
:104C20005BFEC33F91CAC63FC486C93FD732CC3F63
:104C3000B0CECE3F355AD13F4ED5D33FE13FD63FE0
:104C4000D699D83F17E3DA3F8C1BDD3F2043DF3F87
:104C5000BD59E13F4F5FE33FC153E53F0037E73FB9
:104C6000FA08E93F9CC9EA3FD578EC3F9516EE3F3C
:104C7000CBA2EF3F681DF13F5D86F23F9DDDF33F24
:104C80001923F53FC756F63F9978F73F8488F83FD8
:104C90007E86F93F7D72FA3F784CFB3F6614FC3FFD
:104CA00040CAFC3FFF6DFD3F9CFFFD3F127FFE3F72
:104CB0005CECFE3F7547FF3F5A90FF3F08C7FF3F40
:104CC0007EEBFF3FB9FDFF3F000000003EF8E03300
:104CD0003EF8E0352FBAE8363EF8E037279B6C38CF
:104CE0002FBAE83836D964393EF8E039A38B2E3A2A
:104CF000279B6C3AABAAAA3A2FBAE83AB2C9263B2C
:104D000000000000000000000000003E0000004124
:104D10000000804200008043000040440000C04486
:104D2000000040450000C0450000204600006046ED
:104D30000000A0460000E046000020470000604759
:104D40000000A0470000E047000010480000304885
:104D50000000504800007048000090480000B04833
:104D60000000D0480000F048000010490000304921
:104D70000000504900007049000090490000B0490F
:104D80000000D0490000F0490000084A000000007F
:104D90000000000000000000000000000000003ED5
:104DA000000000400000003E000000000000000085
:104DB0000000000000000000000000000000003EB5
:104DC000000000400000003E000000000000000065
:104DD0000000000000000000000000000000003E95
:104DE000000000400000003E000000000000000045
:104DF0000000000000000000000000000000003E75
:104E000000000040ABAAAA3EABAAAA3C00000000EA
:104E1000000000000000000000000000ABAAAA3C57
:104E2000ABAAAA3E000000400000003E00000000C7
:104E30000000000000000000000000000000003E34
:104E400000000040ABAAAA3EABAAAA3C00000000AA
:104E5000000000000000000000000000ABAAAA3C17
:104E6000ABAAAA3E00000040ABAAAA3EABAAAA3C4D
:104E7000000000000000000000000000ABAAAA3CF7
:104E8000ABAAAA3E00000040ABAAAA3EABAAAA3C2D
:104E9000000000000000000000000000ABAAAA3CD7
:104EA000ABAAAA3E000000400000003F0000003E08
:104EB0000000003C00000000000000000000003C7A
:104EC0000000003E0000003F00000040ABAAAA3EE8
:104ED000ABAAAA3C0000000000000000ABAAAA3C5C
:104EE000ABAAAA3E000000400000003F0000003EC8
:104EF0000000003C00000000000000000000003C3A
:104F00000000003E0000003F000000403333333F0C
:104F10006666663E3333333D3333333B0000000077
:104F20000000000000000000000000003333333BAD
:104F30003333333D6666663E3333333F0000004013
:104F40000000003F0000003E0000003C00000000A8
:104F50000000000000000000000000000000003C15
:104F60000000003E0000003F000000403333333FAC
:104F70006666663E3333333D3333333B0000000017
:104F80000000000000000000000000003333333B4D
:104F90003333333D6666663E3333333F00000040B3
:104FA0003333333F6666663E3333333D3333333B0F
:104FB0000000000000000000000000003333333B1D
:104FC0003333333D6666663E3333333F0000004083
:104FD0005555553FABAAAA3E0000003EABAAAA3CDD
:104FE000ABAAAA3A0000000000000000ABAAAA3A4F
:104FF000ABAAAA3C0000003EABAAAA3E5555553FBD
:10500000000000405555553FABAAAA3E0000003EA7
:10501000ABAAAA3CABAAAA3A00000000000000001C
:10502000000000000000000000000000ABAAAA3A47
:10503000ABAAAA3C0000003EABAAAA3E5555553F7C
:1050400000000040DBB66D3FB76DDB3E9224493E69
:10505000DBB66D3D9224493C9224493A00000000A1
:105060000000000000000000000000009224493A07
:105070009224493CDBB66D3D9224493EB76DDB3E40
:10508000DBB66D3F00000040DBB66D3FB76DDB3E29
:105090009224493EDBB66D3D9224493C9224493A24
:1050A0000000000000000000000000009224493AC7
:1050B0009224493CDBB66D3D9224493EB76DDB3E00
:1050C000DBB66D3F00000040DBB66D3FB76DDB3EE9
:1050D0009224493EDBB66D3D9224493C9224493AE4
:1050E0000000000000000000000000009224493A87
:1050F0009224493CDBB66D3D9224493EB76DDB3EC0
:10510000DBB66D3F00000040E4388E3FC7711C3FA6
:10511000ABAAAA3E8EE3383EE4388E3DABAAAA3C49
:10512000E4388E3BE4388E390000000000000000B7
:10513000000000000000000000000000E4388E398C
:10514000E4388E3BABAAAA3CE4388E3D8EE3383E71
:10515000ABAAAA3EC7711C3FE4388E3F0000004056
:105160000000803F0000003F0000803E0000003E45
:105170000000003D0000003C0000003A000000007C
:105180000000000000000000000000000000003AE5
:105190000000003C0000003D0000003E0000803E9A
:1051A0000000003F0000803F000000409A99993FB6
:1051B0003333333FCDCCCC3E6666663E0000003EC6
:1051C0003333333D6666663C3333333B33333339F5
:1051D00000000000000000000000000033333339FD
:1051E0003333333B6666663C3333333D0000003E69
:1051F0006666663ECDCCCC3E3333333F9A99993FB9
:10520000000000409A99993F3333333FCDCCCC3ED8
:105210006666663E0000003E3333333D6666663C9C
:105220003333333B333333390000000000000000D8
:10523000000000000000000000000000333333399C
:105240003333333B6666663C3333333D0000003E08
:105250006666663ECDCCCC3E3333333F9A99993F58
:1052600000000040BAE8A23F74D1453F2FBAE83EA3
:10527000E9A28B3EA38B2E3EBAE8A23D2FBAE83CB2
:10528000A38B2E3C2FBAE83A2FBAE8380000000072
:105290000000000000000000000000002FBAE83805
:1052A0002FBAE83AA38B2E3C2FBAE83CBAE8A23DCD
:1052B000A38B2E3EE9A28B3E2FBAE83E74D1453F28
:1052C000BAE8A23F00000040ABAAAA3F5555553F9F
:1052D0000000003FABAAAA3E5555553E0000003ED7
:1052E0005555553DABAAAA3C0000003CABAAAA3AD2
:1052F000ABAAAA380000000000000000ABAAAA3840
:10530000ABAAAA3A0000003CABAAAA3C5555553DB1
:105310000000003E5555553EABAAAA3E0000003F96
:105320005555553FABAAAA3F00000040ABAAAA3F83
:105330005555553F0000003FABAAAA3E5555553E76
:105340000000003E5555553DABAAAA3C0000003C6C
:10535000ABAAAA3AABAAAA380000000000000000DD
:10536000000000000000000000000000ABAAAA3806
:10537000ABAAAA3A0000003CABAAAA3C5555553D41
:105380000000003E5555553EABAAAA3E0000003F26
:105390005555553FABAAAA3F000000406EDBB63F13
:1053A000DBB66D3F4992243FB76DDB3E2549923E07
:1053B0009224493E0000003EDBB66D3DB76DDB3CFC
:1053C0009224493CDBB66D3B9224493A92244938F9
:1053D0000000000000000000000000009224493896
:1053E0009224493ADBB66D3B9224493CB76DDB3CD5
:1053F000DBB66D3D0000003E9224493E2549923EB9
:10540000B76DDB3E4992243FDBB66D3F6EDBB63FA6
:10541000000000406EDBB63FDBB66D3F4992243F93
:10542000B76DDB3E2549923E9224493E0000003E86
:10543000DBB66D3DB76DDB3C9224493CDBB66D3B82
:105440009224493A922449380000000000000000EC
:105450000000000000000000000000009224493815
:105460009224493ADBB66D3B9224493CB76DDB3C54
:10547000DBB66D3D0000003E9224493E2549923E38
:10548000B76DDB3E4992243FDBB66D3F6EDBB63F26
:10549000000000400000C03F0000803F0000403F8F
:1054A0000000003F0000C03E0000803E0000403E83
:1054B0000000003E0000803D0000003D0000803CF8
:1054C0000000003C0000003B0000003A00000038F3
:1054D0000000000000000000000000000000003894
:1054E0000000003A0000003B0000003C0000803C4F
:1054F0000000003D0000803D0000003E0000403EF6
:105500000000803E0000C03E0000003F0000403F21
:105510000000803F0000C03F00000040C4C3C33F04
:105520008887873F4B4B4B3F0F0F0F3FD3D2D23E65
:105530009796963E5A5A5A3E1E1E1E3EC4C3C33DFF
:105540004B4B4B3DD3D2D23C5A5A5A3CC4C3C33BBB
:10555000D3D2D23AC4C3C339C4C3C3370000000096
:10556000000000000000000000000000C4C3C337BA
:10557000C4C3C339D3D2D23AC4C3C33B5A5A5A3C28
:10558000D3D2D23C4B4B4B3DC4C3C33D1E1E1E3E2B
:105590005A5A5A3E9796963ED3D2D23E0F0F0F3F9D
:1055A0004B4B4B3F8887873FC4C3C33F000000403D
:1055B000721CC73FE4388E3F5555553FC7711C3F9D
:1055C000398EE33EABAAAA3E1CC7713E8EE3383E3D
:1055D0000000003EE4388E3DC7711C3DABAAAA3CDA
:1055E0008EE3383CE4388E3BABAAAA3AE4388E39D5
:1055F000E4388E370000000000000000E4388E37E9
:10560000E4388E39ABAAAA3AE4388E3B8EE3383CB4
:10561000ABAAAA3CC7711C3DE4388E3D0000003E99
:105620008EE3383E1CC7713EABAAAA3E398EE33EDC
:10563000C7711C3F5555553FE4388E3F721CC73F1C
:1056400000000040721CC73FE4388E3F5555553F5F
:10565000C7711C3F398EE33EABAAAA3E1CC7713E00
:105660008EE3383E0000003EE4388E3DC7711C3D9D
:10567000ABAAAA3C8EE3383CE4388E3BABAAAA3AEC
:10568000E4388E39E4388E37000000000000000056
:1056900000000000000000000800080008000800EA
:1056A00008000800080008000800080008000C00B6
:1056B0000C000C000C000C0010001000100010007A
:1056C0001400140014001800180018001C001C001E
:1056D000200020002400240028000000000000001A
:1056E00000000000000000006E4E251D6E4E251DBE
:1056F0006E4E251D0AA2EE1D0AA2EE1D0AA2EE1D87
:10570000D3FA5B1ED3FA5B1EA0A4C01EA0A4C01EC9
:10571000A0A4C01E3CF8891F3CF8891F3CF8891FD3
:105720000AA2EE1FECA52920D3FA5B20B94F8E20E8
:10573000A0A4C020A0A4C0206E4E252155A35721AF
:105740003CF889210AA2EE21787B10225FD0422208
:10575000D3FA5B22B94F8E22A0A4C02287F9F2228D
:10576000E2783E23C8CD70233CF889230000000076
:10577000000000000000000000000000A0A4C5C45C
:10578000381C01C443AD61C35D1A86C6103E86C590
:1057900078F668C4A8E8AFC487A08FC01410C5C14C
:1057A000765A1DC175CF75BEEFE94DC1C0D1F0BFAE
:1057B0007476C431D6555B2FEF73AAAE34E3FBA7E2
:1057C000D0772CAFAD0FB12E4508E3AD65043CAEEC
:1057D0003D367F2994D8E92B0000004014AAE84CFC
:1057E0002C9A5E4C36D9984C045F2F4D3E5CDF4CB2
:1057F00029856E4C3A35994C04F6DC4B6CDE164C20
:105800005CBD5F4BB889514BF8A7A34A5005584A75
:10581000D09BF444BB09624508A0614491D39F44E6
:1058200098DCFC44347E5645308DFA44F79137407D
:10583000100E54404854713F020406080A0D0F121E
:1058400015181C1F23282C31363C424950576068DC
:10585000727C87939FADBBCBDC0000000000000092
:10586000000000000000000000000000203E243185
:10587000403A2433D7265B34BF2A2435E626ED355B
:10588000AF0C5B361A80BF36BEEC2337A251883787
:10589000CFADEC372780283812A45A382FC28C3865
:1058A00001DABE380DEBF038D8F42239E5F6543978
:1058B000B9F08639D9E1B839CBC9EA3909540E3A79
:1058C0001A3E273ADB22403A0E02593A76DB713A09
:1058D000D6AE8A3AF17BA33A8942BC3A6102D53A04
:1058E0003CBBED3ADD6C063B08171F3B7EB9373BEE
:1058F0000554503B5EE6683B4D70813B96F1993B09
:10590000FD69B23B44D9CA3B2F3FE33B839BFB3B42
:1059100002F7093C3A1B163C4C3A223C1B542E3CE5
:1059200088683A3C7577463CC680523C5B845E3C56
:1059300018826A3CDF79763C936B823C15578E3C2B
:10594000483C9A3C101BA63C4FF3B13CE7C4BD3C1D
:10595000BC8FC93CB053D53CA610E13C82C6EC3CA0
:105960002675F83C761C043D55BC0F3DA6541B3DE6
:105970004CE5263D2C6E323D28EF3D3D2568493DE6
:1059800005D9543DAE41603D01A26B3DE4F9763D41
:105990003B49823DE98F8D3DD3CD983DDD02A43D4D
:1059A000EB2EAF3DE351BA3DA76BC53D1D7CD03D0D
:1059B0002A83DB3DB380E63D9B74F13DC95EFC3D2F
:1059C000919F033EC50A093EF3700E3E0FD2133E6F
:1059D0000A2E193ED7841E3E6BD6233EB622293EA0
:1059E000AC692E3E41AB333E67E7383E111E3E3E6A
:1059F000334F433EBF7A483EAAA04D3EE5C0523EDB
:105A000065DB573E1CF05C3E00FF613E0208673ECE
:105A1000160B6C3E3108713E45FF753E47F07A3EED
:105A20002ADB7F3EE3BF843E659E893EA3768E3EA1
:105A30009348933E2914983E57D99C3E1498A13E12
:105A40005250A63E0702AB3E27ADAF3EA551B43E35
:105A500078EFB83E9386BD3EEB16C23E74A0C63EBC
:105A60002523CB3EF19ECF3ECD13D43EAE81D83E12
:105A70008BE8DC3E5648E13E07A1E53E92F2E93E66
:105A8000EC3CEE3E0B80F23EE4BBF63E6EF0FA3E9E
:105A90009C1DFF3E6643033FC161073FA3780B3F58
:105AA00002880F3FD38F133F0D90173FA6881B3FEF
:105AB00094791F3FCE62233F4944273FFD1D2B3F72
:105AC000DFEF2E3FE6B9323F097C363F3F363A3FA3
:105AD0007EE83D3FBD92413FF434453F19CF483FFA
