:10000000682100203D150000391500003915000059
:1000100000000000000000000000000000000000E0
:100020000000000000000000000000003915000082
:100030000000000000000000391500003915000024
:100040003915000039150000391500003915000078
:100050008D02000039150000391500003915000027
:1000600039150000710C0000810C0000910C00009B
:10007000A10C0000B10C0000C10C000039150000FB
:100080003915000039150000391500003915000038
:100090003915000039150000391500003915000028
:1000A0003915000039150000391500003915000018
:1000B0000000000010B5064C2378002B07D1054B3B
:1000C000002B02D0044800E000BF0123237010BDC4
:1000D0007000002000000000C0A60200084B10B510
:1000E000002B03D00749084800E000BF0748036819
:1000F000002B00D110BD064B002BFBD09847F9E731
:100100000000000074000020C0A60200C0A602008B
:100110000000000070B5094B00209847FA21084CF8
:1001200089000500A047074B074918602800A04731
:100130000522064B1860064B1A6070BDF9120000CC
:10014000C12100000000002040420F0004000020F8
:1001500010E000E030B580240021074B64021A68EB
:10016000064B013800D230BD002AFAD05A6099609F
:100170001D682542FCD0F4E70400002010E000E0F8
:1001800030B580240021074B64021A68064B013801
:1001900000D230BD002AFAD05A6099601D6825420D
:1001A000FCD0F4E70000002010E000E0094B1968E3
:1001B00000290BD1EFF31080074A002805D172B651
:1001C000BFF35F8F05490870012111701A68013271
:1001D0001A6070478C00002090000020080000206A
:1001E000084B1A68013A1A601B68002B09D1064BAC
:1001F0001B78002B05D00122044B1A70BFF35F8FD0
:1002000062B670478C00002090000020080000209B
:10021000F7B50125002701AC084E21003E2065708E
:10022000A7702570B0478022054BD2051A602100C7
:100230000F2027706570B047F7BDC046E50300008A
:100240009844004110B51723002A06D1064B8900B7
:10025000CC58002C03D1C8502300180010BD130047
:100260008442FAD01D23F8E7080100201723002953
:1002700006D11F2806D8163B8340034AD3600B00E3
:1002800018007047C960FFDE00180040002370B5F9
:1002900001250B4C237023780F2B00D970BD29004A
:1002A0009940084A1069084206D01161064A9B002D
:1002B0009B58002B00D09847237801332370EAE73E
:1002C000040100200018004008010020014B58786C
:1002D000C009704700180040022310B5044A117885
:1002E0000B431370034B98470028FBD110BDC04649
:1002F00000180040CD020000402307B5104A052039
:1003000091690B439361002301A90B700D4B984732
:100310000D4B0520984701230C4A11780B431370AD
:100320000B4B98470028FBD102000A4B1A500430AF
:100330004028FBD11022084B1A60084B984707BD94
:100340000004004009140000811300000018004060
:10035000CD0200000801002000E100E0D902000009
:1003600000230122036043608372023302724272EF
:10037000C3727047F7B50C000026237901A94E70AF
:10038000CE700B70237A05008B702078134B984742
:1003900033001F2D00D8124B0721A27A2940890073
:1003A000E67A002A01D0082216430F278E408F409C
:1003B0003100EA0892009A189069B84301439161AC
:1003C000617A0122002904D0AA4059690A435A617E
:1003D000F7BDAA40596991435961F9E7DD1400005E
:1003E0000018004007B5802201AB1A700A785A70D5
:1003F0004A789A708A781900DA70014B984707BDDD
:10040000DD14000007230168CA691A42FCD1704755
:100410000300F0B501278DB019600290924B0800DF
:1004200016000D0098473C00831C9C4023008F4A17
:100430001430116AC4B20B431362337B0AAA1370DF
:10044000110020008A4B984720008A4B98478A4B1E
:10045000307B002198472B681C209B0700D5F6E0D5
:100460002C6817383C4000D0F1E014232B60029B2D
:100470000BAD1B68019318007B4B984780230690B7
:10048000F0696C70EC702B70AF70346A002803D187
:1004900001007A4B0198984702232870000C6B707A
:1004A000C0B22900764B9847002C04D10121019855
:1004B000724B9847040002272C70240C704BE0B25A
:1004C00029006F709847B38A029AD380F38A138108
:1004D000327E8023002A05D16A4B9B783B405F1E09
:1004E000BB41DB01B268376917431F43731DDB7FD4
:1004F000002B02D08023DB051F43B36A1F43330068
:100500002C331B78002B03D180239B049A4202D109
:1005100080231B051F4333002D331B78002B02D093
:1005200080231B041F4333002E331B78002B02D083
:100530008023DB031F43019B06981B68019A1F431E
:10054000019B14301F608023FA275B005360C0B208
:100550004D4B98473368BF005F437368069007931D
:100560004A4B9847494B0290039178009847049072
:100570000591464B308E9847454C0890099102985A
:100580000399444A444BA04702000B00089809997C
:10059000A0470022414C424BA0473C4B040038008E
:1005A0000D00984702000B0020002900384CA0479E
:1005B0003C4D02000B0002980399A847049A059B42
:1005C000364CA0470022384BA847049A059B374C6D
:1005D000A047374B98478023B26807009B049A4294
:1005E0003ED1FA23079C9B005C43029A039B2B4E4F
:1005F00010001900B047254B029003912000984746
:1006000000222C4B224EB047284E02000B000298CD
:100610000399B0470022244BA847254B9847264B07
:10062000061E16D02100069898470238831B4020EA
:10063000FF2F0CD8FF2B0AD8FF203D0000041B041D
:100640000340002036063543019A2B43D3600DB09A
:10065000F0BD6100069A481E80189847431EE6E7E1
:1006600000263300E3E7C046410C000000040040D0
:100670000914000081130000A10A0000E50A00002F
:10068000DD1400000020004125140000613B000043
:10069000CD2F000095D626E80B2E113E45230000F5
:1006A00000002440CD3400000000F03F6529000028
:1006B000F93A000000000840C1210000022203684E
:1006C000197E114206D01A765B8B412013420AD163
:1006D000002008E05A8B5207FAD5C022182059682A
:1006E00092020A435A60704770B500220126022424
:1006F00001680B7E334002D10D7E254201D00020DF
:1007000005E00132038992B29342F2D8122070BD03
:10071000802310B50468DB02626813436360616282
:10072000024B98470123237610BDC046E90600001E
:10073000F0B5046885B0236801901B01DB0F4D887C
:1007400003934B7A0E00002B02D0897A474B9847CF
:100750006368474F3B406360727A3388317A920313
:100760005B0013430122002919D080221202134397
:10077000636201983F4B984763683B406360002881
:1007800063D101983C4B984700285ED1782332888A
:10079000717A120A1343012289035B000A4313434F
:1007A00063620198334B9847039B0200002B17D0DC
:1007B0007388012B14D180236168DB020B436360D3
:1007C000002A42D101982C4B984700283DD1013D89
:1007D000AFB20500294B9F4206D10295002520E0CB
:1007E00063681F406760EBE72022638B13423AD0B7
:1007F000019BDB7A002B04D0039B002B27D1002F19
:1008000027D001981E4B98476B1C9BB20293230084
:1008100028331B78726801985355164B9847051E6C
:100820001DD0019B164F9B7A002B06D00198B8472C
:10083000C02362689B02134363600198B847280095
:1008400028342278736802995A5405B0F0BD012FFC
:10085000D7D180226368D202134363600295013FBF
:10086000BFB2029DB6E74120EFE7C0461107000086
:10087000FFFFFBFFE9060000BD060000FFFF0000D0
:1008800005040000F7B50F004B88050001932A4BC3
:10089000046898477B7A002B03D0B97A2800274B4D
:1008A00098476368264A134063607A7A3B88397AAE
:1008B0005B0092031343002902D0802212021343EB
:1008C000636228001F4B9847061E15D128001E4B57
:1008D0009847061E10D10090009B019A93420DD1BB
:1008E0000026AB7A002B07D0134B28009847C02373
:1008F00062689B02134363603000FEBD2022638B5D
:10090000134216D028000C4B98477B68009A2800A9
:100910009A5C230028331A700A4B9847061EE0D1D0
:10092000009A638B0132009204221342D4D01E2617
:10093000D7E74126E0E7C0460504000011070000A4
:10094000FFFFFBFFE9060000BD060000012310B514
:100950008372C372014B984710BDC0463107000037
:10096000012310B58372C372014B984710BDC04676
:1009700085080000F0B5002489B0009201933F2360
:10098000002600272500069007910393039A134B36
:10099000012000219847B6197F41069B079A034022
:1009A0000A4004960597134303D0012333431E00E6
:1009B000059F019BBB4209D802D1009BB34205D8D9
:1009C000009A019BB61A9F4104430D43039B5A1E94
:1009D0000392DBD22000290009B0F0BDD92200002B
:1009E00010B54908040000234020A14201D210BDE7
:1009F0000300581C091B80B28C42F9D94020FF2B00
:100A0000F5D813800020F2E7F0B585B01E000AABE0
:100A10000D00197803004B4303924027AB4217D8CF
:100A2000002E18D10200330008001B4C3100A047F3
:100A30002A0001003300194C3000A0470022012396
:100A4000121A8B41140C180404430027039B1C80CA
:100A5000380005B0F0BD0024012EF6D10A002300B5
:100A600021000D4EB047009001910B0002002100C3
:100A700028000A4CA047802306009B019842E7D833
:100A8000009A019B690FE800A047F400041BE4B240
:100A900064033443D9E7C046F12200007509000021
:100AA00037B50D4C05002378002B01D000290CD060
:100AB00001A91320094B0D7098471320084B984744
:100AC00001230020657023703EBD63780800AB42AF
:100AD000FAD01D20F8E7C04691000020091400005C
:100AE00081130000394A030000B50800934233D057
:100AF00007D8374A934214D0364A93421FD0002376
:100B000017E0354A93423AD0344A934244D0344AAB
:100B10009342F4D1002303290BD801F047FB502A5C
:100B20002C2E0023032904D801F040FB43020507C3
:100B30002C4B180000BD2C4BFBE72C4BF9E7002396
:100B40000329F6D801F032FB37020406284BF0E700
:100B5000284BEEE7284BECE700230329E9D801F006
:100B600025FB2C020406254BE3E7254BE1E7254B4B
:100B7000DFE7254BDDE7254BDBE7254BD9E70023F6
:100B80000329D6D801F012FB1D020406214BD0E741
:100B9000214BCEE7214BCCE700230329C9D801F034
:100BA00005FB120204061E4BC3E71E4BC1E71E4B9A
:100BB000BFE71E4BBDE70323BBE71D4BB9E71D4B4A
:100BC000B7E71D4BB5E71D4BB3E7C0460010004229
:100BD00000080042000C004200180042001C0042C5
:100BE0000014004203000500030006000300070094
:100BF0000300010003001E0003001F0003000900A2
:100C000003000A0003000B000300110003001200A0
:100C10000300130003000D0003000E0003000F008B
:100C2000030017000300180003001900030004006C
:100C3000030008000300100003000C00030016006E
:100C400070B586B06946094B6A4670CB70C170CBEF
:100C500070C1002399005158814202D1D8B206B028
:100C600070BD0133062BF5D10020F8E71C4D0000C4
:100C700010B5024B00201B68984710BD940000205F
:100C800010B5024B01205B68984710BD940000200E
:100C900010B5024B02209B68984710BD94000020BD
:100CA00010B5024B0320DB68984710BD940000206C
:100CB00010B5024B04201B69984710BD940000201A
:100CC00010B5024B05205B69984710BD94000020C9
:100CD0000268D369002BFCD1704700000300F0B517
:100CE00093B00290196008008E4B05911700012601
:100CF0009847059B05001B680520334200D0EFE0B4
:100D0000059B17301C6802231C4000D0E8E030002F
:100D1000EB1898400300844A1435116AEDB20B4376
:100D200013623B002D3303931B780CA90B70280032
:100D30007E4B984728007E4B9847039B21001878EC
:100D40007C4B9847FB7A029A082553717B1DDB7F09
:100D50009371BB1DDB7FD371FB7E13723B7F53729C
:100D60001368049318006F4B98470EAB1C803B8AA6
:100D7000143003938023039ADB019A4214D008D8DD
:100D8000802310259B019A4200D1ACE0102500245D
:100D90000AE0C023039ADB019A4200D1A2E080233B
:100DA00003251B029A42F1D13B680793FB68089325
:100DB0007B6909933B7E0A93FB1DDB7F0B937B686A
:100DC00006933B00069A0833002A00D18DE080226A
:100DD0000699520591420DD1DB7F002B0AD1564B6B
:100DE000C0B23C6A98470EAA0100544B20009847B5
:100DF000002875D17B7E002B02D0BB7E049A9373B2
:100E00004F4B02980EAE98473388049A079C938103
:100E1000089B1C43099B1C43069B1C43039B1C43D0
:100E20000A9B1B021C430B9B5B071C433B000833C4
:100E3000DB7F002B01D104331C437D7E3B7FAD0261
:100E40005B021D437B7FFA7A1B021D437B1DDB7F08
:100E50005B041D43BB1DDB7F1B042B43BD7A154385
:100E60001D433B89FF2B55D08022520414431D4360
:100E70003B002C331B78002B03D1324B9B789B0714
:100E800001D580231C4302982D4B9847049B029860
:100E90005D602B4B9847049B00251C6080230DACA4
:100EA00023703B6B65700E937B6BE5707360BB6B5F
:100EB000A570B360FB6BF360AB00F058E9B200289B
:100EC00002D10598204B9847431C05D02070000C98
:100ED000C0B221001D4B98470135042DECD10020F4
:100EE00013B0F0BD082534005EE7DB7F002B07D090
:100EF00023000095B96A386A0EAA154CA04777E717
:100F00000D4BC0B23E6A98470095010023000EAA1F
:100F10003000F2E7FB7E002BAAD08023DB041C43C9
:100F2000A6E7C046410C0000000400400914000080
:100F300081130000A10A000025140000E10900004F
:100F4000D10C000000200041E50A0000DD14000083
:100F5000090A000070B5C2790D001C23002A0CD0CC
:100F60000468173B227ED20707D5054B984702231A
:100F70002585227E1A42FCD00023180070BDC04691
:100F8000D10C000070B582790E001C23002A10D00D
:100F900004250468173B227E2A420AD0134B984747
:100FA000638BDBB29A061DD00222134203D01A23B0
:100FB0006283180070BD2B4202D065831E23F8E7C0
:100FC0000122134202D062831323F2E7102213425C
:100FD00002D062834223ECE72022134202D06283D4
:100FE0004123E6E7238D33800023E2E7D10C0000A4
:100FF00010230249CA681A42FCD07047000800401A
:1010000070B5082806D801F0D1F80805052E2E1273
:101010000B1526000024200070BD154B1C69FAE753
:10102000144B154C1B6A9B059B0FDC40F3E7104BE0
:101030005C69F0E70E4D00242B689B07EBD50F4B46
:1010400098472B685B0711D520000D4B9847AC687B
:10105000A4B24443DFE70B4B00241B785B07DAD5CF
:10106000034BDC68D7E780242402D4E7064CD2E7A0
:10107000AC0000200008004000127A00F10F0000D0
:101080002514000050080040006CDC0270B5847824
:1010900002784578012040260540204080240849F8
:1010A000AD010B6AC001B3432B43A34303430320A9
:1010B000024004481202034013430B6270BDC04655
:1010C00000080040FFFCFFFFF8B5082806D801F033
:1010D0006DF81405050C0E1A072034001720F8BD12
:1010E0000223194A116A0B4313620020F7E7022317
:1010F000154A91690B439361F7E70223124A118A5B
:101100000B431382F1E702230F4A918A0B43938228
:10111000EBE7022200240D4E0B4D33680C4F1343B6
:101120003360AA84B847B368EB627368AB62AC847F
:10113000B84733689BB2AB84D7E70223054A1178DE
:101140000B431370D1E7C04600080040AC000020FC
:10115000F10F0000440800407FB5C2221E21194B48
:10116000D2009A60184A0024536801AD8B43536043
:1011700001232B70E0B22900144B01349847252C31
:10118000F8D100246B4601265C709E701C70684686
:101190000F4B98470F4B062098470F4B98470F4B24
:1011A00029001C725C729C72DC72062320002B707A
:1011B0000B4B6E606C702C726C7298472000094B60
:1011C00098477FBD0008004000400041091400001E
:1011D0008D100000C9100000F5110000000400404F
:1011E00015120000B9120000014B5878C009704771
:1011F000000C00400823054A91690B4393610123C9
:10120000034A137011781942FCD170470004004062
:10121000000C0040F8B50C784B782402060005005D
:101220000443002B02D08023DB021C434B7A002BAB
:1012300002D080231B031C434B68012B12D95D1E77
:101240001D400222002D06D01D02802335439B0243
:1012500007E0013552009A42FBD380232D0235432B
:101260005B031C430B7A002B02D080239B031C439F
:101270000C4FB8470028FBD10B4B98470B4B1E7007
:10128000B8470028FCD10A4B9D601D00B8470028D4
:10129000FCD180226B68520213401C436C60054BEA
:1012A0009847F8BDE9110000AD010000080C0040AE
:1012B000000C0040E101000070B50500094CA0479A
:1012C0000028FBD1084B9847084B1D70A047002809
:1012D000FCD18023064A5B0251680B435360054BE7
:1012E000984770BDE9110000AD010000040C0040FA
:1012F000000C0040E1010000F7B50700184EB047B0
:101300000028FBD1174B9847174B1F700193B0472C
:101310000028FCD1154D164B6868C004C00E9847D4
:101320000400019B1F706B68DB02DB0F0193114B04
:101330001F70B0470028FCD1AD680F4B9847019B48
:101340002D022D0C002B08D1012D04D920002900DD
:101350000A4B984704002000FEBD0135EC40FAE737
:10136000E9110000AD010000040C0040000C004039
:1013700001100000080C0040E1010000C121000044
:1013800010B50400064B9847064B074A1C70802393
:101390005188DB010B435380044B984710BDC04676
:1013A000AD010000020C0040000C0040E101000013
:1013B00010B504000E4B98470E4B0F4A1C700F4B94
:1013C0000F4C588859880005114059805988000FE2
:1013D0002140598011008022D2015C881442FCD146
:1013E0005A8800020A4002435A80064B984710BDB3
:1013F000AD010000020C0040FFF0FFFF000C0040B8
:10140000FFBFFFFFE101000010B50C78034B240281
:1014100004439847024BA4B25C8010BDB113000096
:10142000000C004010B50400064B9847064B1C709A
:10143000064B5C88064B2405240F98472000054B7B
:10144000984710BDAD010000020C0040000C0040A8
:10145000E1010000F9120000D37830B5002B35D13E
:101460001478802C03D0802324065B0223430225BA
:101470005478AC4306D19478002C24D18024A40263
:10148000234341605478013C012C01D8124C234085
:10149000A0248DB2E4052C431C438462D0240D0C9F
:1014A00024062C431C438462D478002C0AD15B03AD
:1014B00003D59378012B0CD181615378013B012B2B
:1014C00000D8816030BDC024E402D9E74160002328
:1014D000DEE74161F1E7C046FFFFFBFF10B5030007
:1014E0000A004409C1090020814202D10449E001F7
:1014F00040181F210B401E399940024B984710BDE0
:1015000000440041591400007047000010B5054B1D
:101510009847054B9847054B9847054B9847054B0F
:10152000984710BD59110000110200000915000074
:10153000F902000009150000FEE7000021482249D9
:1015400070B5884204D00023204CCA18A24232D37E
:1015500000211F4B1F4A934231D3FF211E4B1F4ACC
:101560008B43936002220C25082430261C4B1D4817
:101570005A62C378FC398B431343C370C378AB43BF
:101580002343C370184B987BB043060020203043A0
:101590009873987BA84304439C73987B88430243C9
:1015A0009A738023114A51680B435360104B98473C
:1015B000104B9847FEE7C55804331560C5E702C3D2
:1015C000C9E7C046C0A6020000000020700000204D
:1015D00070000020640100200000000000ED00E029
:1015E000FC700041005000410048004100400041B3
:1015F0000D3C0000C91E000070B50E00140015005F
:10160000002808D0012040420CE0074B013D18683B
:10161000064B1B689847611B7118002DF5DCE043F1
:10162000C017204070BDC046500100204801002076
:10163000013870B50E0002280DD80C008D18A01BC3
:10164000AC420AD0054B21781868054B01341B6861
:1016500098470028F3DA0120404270BD5001002075
:101660004C010020054B02001968002901D10449F2
:101670001960186882181A607047C046C4000020BC
:101680006821002001204042704780239B010020F8
:101690004B607047012070470020704710B5044C24
:1016A000044B20009847434243415842204010BD1C
:1016B000C8000020E11B00000122014B1A70704796
:1016C000ED000020002070473E2330B585B001AC0E
:1016D00023800023094D6180606023726372A372CE
:1016E00021000748074B9847002801D105B030BDBD
:1016F000013DADB2002DF3D11220F7E7E903000060
:1017000054010020610900003E2330B585B001ACD2
:1017100023800023094D6180606023726372A3728D
:1017200021000748074B9847002801D105B030BD7C
:10173000013DADB2002DF3D11220F7E7E90300001F
:10174000540100204D090000F7B516001F000A0AD9
:10175000C3B212041B0201AC1343020A134361809B
:1017600009061943208000910500042168460E4BAC
:1017700098470020002E16D005200C4B98470C4BA4
:101780000421200098470220227863781202134334
:101790003B80013E40429D42ECD10020A278E3789C
:1017A000120213433B80FEBDC916000081010000F8
:1017B0000917000073B56B469D1D002304002B80A4
:1017C0000E4B1A78002A0ED0002402221C70210031
:1017D0002B000B480B4EB047A0420DD12B88A342E3
:1017E00000D0D8B276BD002C03D02000064B98471D
:1017F000E6E70120054BFAE72000F3E7ED000020C3
:101800006D800000491700008101000055010000B3
:10181000F7B56B4680209D1D2B00012200214C4C0A
:101820000002A04701204B4EB0472B0005220021AB
:101830004948A0470124002803D12C88631E9C41FD
:10184000E4B20120B0476B469D1D2B0001224349A5
:1018500043483F4FB847002800D06CE03F4A2B88F0
:101860009B1A5A1E9341E4180120B04701222B0015
:1018700011003C48364FB84700285ED12B88013B09
:101880005A1E9341E4180120B0472B000122102179
:1018900035482F4FB847002851D12B88103B5A1E8E
:1018A0009341E4180120B0472B00012206212F4864
:1018B000274FB847002844D12B88063B5A1E934136
:1018C000E4180120B0472B00012229492948204F64
:1018D000B847002837D12B88254A934233D12B00B3
:1018E0000122052124481A4FB84700282BD12B8804
:1018F000053B5A1E9341E4180120B0476B461F4F29
:101900009D1D39002B0001221A48114EB047011EBF
:101910001BD12B88BB4218D12B0001221648B0479F
:10192000002812D12B885A1E9341E4180120094B3C
:1019300098472000FEBD013496E70134A3E7013447
:10194000B0E70134BDE70134D6E70134EEE7C04625
:10195000491700008101000033800000140C0000D2
:1019600015800000308000003580000032800000CB
:10197000085000001780000018800000035000008D
:10198000F0B500230C00FE2187B004AA1380538019
:1019900001904900324B20009847FE2183B200930A
:1019A000490020002F4B984789B2002903D00098A6
:1019B000013083B200930122210004AB2A4D2B4851
:1019C000A8472B4B6420984704AB9F1C294B019AD6
:1019D0001B7852881B019B183B800225630800245A
:1019E0000293029B9D420ED305AC0520224B9847E3
:1019F00004212000214B98471E4A137801331370AD
:101A0000E07807B0F0BD1A4B642098471C4E0221C5
:101A10000198B04702213800B0472B00FF336E1CFD
:101A20000393029A731E934217D20221154BF018AA
:101A3000019B40001818124B9847039B01369E42A9
:101A4000EFD10134009BA4B2FE35A34200D1FF24A4
:101A50003A88230213433B80C3E702210020EAE7D0
:101A6000C1210000CD220000491700002F80000096
:101A700055010000EC000020810100000917000062
:101A8000C9160000FFFFFF7FF0B585B002AB01254E
:101A9000DC1D002301900E0003A82900104F0570E3
:101AA0002370B847002804D002256D42280005B0F5
:101AB000F0BD290020000B4B9847051EF4D1237878
:101AC0000400012BF0D1B442F0D2074B311B9942F4
:101AD00000D91900019B1819B847034BE418F2E725
:101AE000C916000009170000FFFF000030B5214BA8
:101AF00085B0214921489847214B0400232098476D
:101B0000002C02D00220404231E080206B460122AE
:101B1000210000021B4DA8470028F3D16B469C1CF6
:101B200058800122230004211748A847002802D129
:101B30002388042BE6D101AC2000144B9847802366
:101B4000DB0204256360012321002372E372A37288
:101B500028000F4B01959847002229000D4B0E4895
:101B600098470E4B0021280098476B46188805B00F
:101B700030BDC046891A0000A8490100B0530000DA
:101B800081010000491700001A8000006103000075
:101B90007503000045020000B91600006D02000048
:101BA00010B502490248034B984710BD7C0600005F
:101BB000344D0000891A0000012313B5002401A947
:101BC0004B700B702720044B8C7098478022034B7E
:101BD00020001A6016BDC046E50300009444004191
:101BE000B723F0B593B002AA13714C4B0600984787
:101BF000012304AD6B70012300242B702900072002
:101C0000474BAC7098478023464F29007B610420E6
:101C1000434B98471023444D7B6170332B60012068
:101C2000424B98478022424B14201A603F4B984702
:101C3000404B05AF7B6080239B033B6101235B42EC
:101C400002AABB8212339B18DC7710AB1C703923BD
:101C50009B181C703A239B181C70D7233B86364B6D
:101C6000BC60FB82C8233C733C76FC613C62BC6276
:101C7000324C5B0005933A003149324B20009847C3
:101C800007212B4B22680193D3690B40FCD1022121
:101C90001068014311601021E088548B0C4203D17D
:101CA00001338342F9D35183802401201F4B98478D
:101CB0002C6001201D4B9847019B14201C601B4B7E
:101CC00098471A4B01209847012103A81E4DA847A9
:101CD0000120164B9847012138001C4B9847041EE1
:101CE000F9D13B78B72B16D1104B0A209847184BE7
:101CF00035623360174B7360174BB360174BF3605B
:101D0000174B3361174B7361174BB3610F4BF36183
:101D1000200013B0F0BD02246442F9E7B91B0000B3
:101D2000E5030000004400419444004181010000AB
:101D300098440041480D0000102700005401002085
:101D40000010004211040000C9160000091700002D
:101D5000A11B0000ED1A00008119000011180000FD
:101D6000C5160000B51700004917000073B56B4693
:101D70009C1D002306000D00238021003000034B32
:101D800098470028F9D123882B7073BD850F000078
:101D900070B504000D00A9B22000024B984700283E
:101DA000F9D170BD550F0000F8B580250400ED0590
:101DB000002C00D1F8BD054F9620054E3D60B04780
:101DC0003D609620B047013CF2E7C0469C4400418C
:101DD000810100008023F0B5DB0591B06A460093D5
:101DE000FF230024138101239472D4720532D37728
:101DF0006A460632D3776B460733DC7702ABDC7773
:101E00000BAB1C702D236B441C706B466A461C8206
:101E1000DC761C761C775C761323937680235B0339
:101E20000393184B184D0C93184B54770D930123C3
:101E30005B420E930F93E1235B020893144B154A08
:101E40001D60154B01940A9405941A60134A144BB3
:101E500014491A6028006A46134B9847134F210013
:101E60003B68134E9868B0473B6821005868B047FC
:101E70002B68DA69002AFCD1196802320A431A6019
:101E800011B0F0BD02001600F000002002001700A3
:101E900050010020911D00004C0100206D1D00002C
:101EA0004801002000140042DD0C00000C0000205E
:101EB0006D3D000010B50248024B9847FEE7C04652
:101EC000589D0100593D0000F0B5844B91B09847F2
:101ED000834B9847012202AB5A71002302AA9371E7
:101EE0001300012203A91A713E207E4B98478022DD
:101EF0007D4BD2051A607D4B98477D4E7D48B0479B
:101F00007D48B0477D48B0477D48B0477948B047E5
:101F10007C4B9847041E05D003689847002803D0DF
:101F20007948B047794B98477948B04763689847F4
:101F3000002801D07748F4E77748B04777497848D8
:101F4000A3689847774D071E774804D0A847390003
:101F50007648A847E6E7A8477548B04775497648E8
:101F6000A3689847011E7548F3D17548B047714979
:101F70007448A3689847011E7348EAD17348B04774
:101F800066497348A3689847011E01D07148E0E78D
:101F90007148B047E3689847071EC3D16F48B04700
:101FA0005448B04702AB9D1C390032226C4B03A849
:101FB0002F80984739002B0001226A48A769B8474B
:101FC000002852D06848B04703A9564B6748984745
:101FD00002AB9E1C330001226549A5696548A847EC
:101FE0003188504B64489847C021012233000901D1
:101FF000A5696248A84731884A4B614898473C4DDB
:102000003C48A8473300002202215E48A669B04739
:102010005D48A84704205D4B9847FA2063699847BC
:10202000060001284AD15A48A8473000574B984724
:10203000FA20636998470600032836D0042836D072
:10204000022836D15348A847E368984702AB0233C9
:10205000002202214B48A769B8474C4BFF2E2BD1D9
:10206000062098474C48A847D7E72B88312502AA75
:102070001371561D02AB0233012200214748A769A4
:102080000193B847019B013D1B8832003370EDB2CC
:10209000002B07D0002805D10136002DEAD10023FE
:1020A000137091E7002DFAD08EE73D48CBE73D480D
:1020B000C9E70028BCD0C7E73000ADE70028ACD0A6
:1020C000E368984702AB023300220221A7692D483A
:1020D000B8473100134B344898479EE70D15000070
:1020E00015010000E503000098440041D51D0000E3
:1020F000593D00004EA1020080A10200F0A10200A3
:1021000010A202009D16000031A20200B51E0000C0
:1021100053A2020072A2020096A20200E03B00005D
:102120007E9D0100653C0000B2A20200C0A2020038
:10213000F8A20200084600005ED9010013A30200C5
:102140005DA30200661F020089A30200CCA3020067
:102150006E650200F1A3020036A402005DA4020035
:10216000553C0000208000007BA4020091A40200E6
:102170000850000016800000AEA402001D80000080
:10218000D8A4020010900000EFA40200A91D0000D6
:1021900006A5020014A502003EA502002180000051
:1021A00026A5020031A5020054A5020002B4714622
:1021B00049084900095C49008E4402BC7047C0468A
:1021C000002243088B4274D303098B425FD3030A76
:1021D0008B4244D3030B8B4228D3030C8B420DD389
:1021E000FF22090212BA030C8B4202D31212090217
:1021F00065D0030B8B4219D300E0090AC30B8B4255
:1022000001D3CB03C01A5241830B8B4201D38B0302
:10221000C01A5241430B8B4201D34B03C01A5241A7
:10222000030B8B4201D30B03C01A5241C30A8B42EA
:1022300001D3CB02C01A5241830A8B4201D38B02D5
:10224000C01A5241430A8B4201D34B02C01A524179
:10225000030A8B4201D30B02C01A5241CDD2C309EB
:102260008B4201D3CB01C01A524183098B4201D367
:102270008B01C01A524143098B4201D34B01C01A52
:10228000524103098B4201D30B01C01A5241C308CA
:102290008B4201D3CB00C01A524183088B4201D339
:1022A0008B00C01A524143088B4201D34B00C01A25
:1022B0005241411A00D20146524110467047FFE791
:1022C00001B5002000F006F802BDC0460029F7D095
:1022D00076E770477047C0469140031C90409C468B
:1022E000203A9340194352426346D3401943704702
:1022F000F0B5CE46474615042D0C2E0080B50704D8
:10230000140C3F0C9946030C7E435D4367436343C3
:102310007F19340CE4199C46A54203D980235B0243
:102320009846C4444B46514343433604360C250C6F
:1023300024046544A4195918491920000CBC90467E
:102340009946F0BDF8B54546DE4657464E460C0365
:10235000E0B54E00C90F88460D00610A440F0C43DA
:10236000C70019035800DB0F9B464B0A510F0B4364
:10237000760D400D1900D200D84500D1AEE0351AD7
:10238000002D00DCF6E000280FD1134300D1DBE084
:102390006B1E002B00D037E1BA1A9742BF41641A76
:1023A0007F42E41B0126170024E0C64B9E424DD01D
:1023B00080231B041943382D00DD07E11F2D00DDAC
:1023C00038E12020431B9A460B0050468340994633
:1023D00013004846EB401843030050468240501E0D
:1023E0008241E9401A43BA1A611A9742A441170080
:1023F00064420C1B230262D56402650A002D00D1E1
:10240000DFE0280001F0E4FB0300083B1F2B00DDA8
:10241000D2E020223C00D21A9D40D4409F40254368
:102420009E4200DDC4E09E1B731C1F2B00DDF1E00B
:10243000202238002900D21AD840914097402C0021
:102440000143781E8741DC4000260F437B0709D0FB
:102450000F233B40042B05D03B1DBB42BF417F42B5
:10246000E4191F0023022CD5964B01369E4200D161
:102470009AE04546944BFF081C40600776056402CD
:102480000743240B760D00212403230B0C0D8F4AE8
:1024900024051C431440330523435B00ED075B0810
:1024A0002B43380019003CBC90469946A246AB46E7
:1024B000F8BD6446044300D111E2040067467B077F
:1024C000C6D145466007FF080743E4087D4B9E429E
:1024D00030D024037605240B760DD4E7331A9A46C0
:1024E000002B78DD002831D076488642AED080209F
:1024F000000401435346382B00DCE9E00A43511E37
:102500008A410021D219BA42BF4109197C42170001
:102510000C192302D3D56B4B01369E4200D13AE110
:102520000120694B1C407B0807401F43E00707431D
:1025300064088BE723003B4300D1CBE180221203E8
:1025400014432403240B9EE72E007FE7080010436A
:1025500000D1B4E0581E002800D0DEE0BA18BA421C
:102560009B4164185B42E418170001262302A6D59C
:102570000226D5E7002D6ED1701C4005400D0128C4
:1025800000DCF9E0B81A844687428041E51A4042EF
:102590002D1A280200D489E0D71BBA4292411C1B95
:1025A0005242A51AD84629E74546002400276AE783
:1025B000454CF61A2C4049E73D0028388540002755
:1025C0002EE7380001F004FB20301DE70A43511EBE
:1025D0008A41002107E7002B00D0F3E0701C43057F
:1025E0005B0D012B00DCADE0364B984200D1D1E011
:1025F000BA18BA42BF4164187F42E419E70752088B
:1026000017436408060021E72E48854200D193E075
:102610001D00D0E629001F3EF140202B00D18DE0A7
:102620004022D31A9D402F437D1EAF4100240F430B
:10263000002644E72B000800203BD8400300202D53
:1026400000D17DE04020451BA9400A43511E8A412C
:1026500000211A43C7E6002E50D01A4EB04257D080
:1026600080266B429946360434434B46382B00DDB6
:10267000D6E01F2B00DD35E12026F51A2600AE40FE
:10268000B2463E00DE40AC46350056462E43654617
:10269000AF407D1EAF41DC403743D71BBA42924169
:1026A0000C1B5242A41A0600D846A3E664466746AD
:1026B0002C4300D0A2E600250026002706E71E00D6
:1026C000C4E6C046FF070000FFFF7FFFFFFF0F804B
:1026D0001F2B63DC2020C31A080098409C468346C9
:1026E00053461000D84003005846184363469A40AA
:1026F000531E9A4153460243D94003E726003E4306
:1027000006D0EB439946002BC7D0944EB042ACD1D3
:102710000C0017000600D84698E6904B9A450BD05F
:102720008246E7E6002800D09EE01800104300D162
:10273000E9E01C001700D846884E87E6002572E7BE
:10274000002182E723003B43002E00D0ABE0002BAA
:1027500000D1E7E00B00134300D177E6BA18BA4284
:10276000BF4164187F42E419230200D4F2E07C4B9D
:1027700017001C40060069E620003843002ED1D126
:1027800000285BD11C00144300D1A8E01C001700F6
:10279000D8465BE606000024002797E650460B006B
:1027A0002038C34099465346202B00D195E0402362
:1027B00050461B1A99400A43511E8A414B4600213C
:1027C0001A439FE6002E30D126003E4367D0DB43FC
:1027D0009A46002B1CD0614EB04260D05346382B35
:1027E00000DD96E01F2B00DD9FE02026F31A260077
:1027F0009E409C46B34653463E00DE4033005E4654
:102800001E4363469F407B1E9F415346DC40374337
:10281000BF189742924164185242A418060078E605
:1028200027437C1EA741002437E74C4EB04236D0E8
:1028300080265B4236049A463443CFE718001043A3
:1028400000D103E6B81A84466745AD41E01A6D42EF
:10285000401B050200D42CE6D71BBA4292411C1B38
:102860005242A41AD846F1E51800104300D163E79C
:10287000F808670707438020E4080003044208D0F3
:10288000DD08054205D1D208590711430F002C007D
:10289000D8467B0FE4001C43FF00304ED6E50C0009
:1028A00017000600D2E5002B38D00B00134300D1EF
:1028B00042E7F808670707438020E4080003044262
:1028C000E7D0CB080342E4D1D208490711430F00F7
:1028D0001C00DEE700270024D5E500216BE700257A
:1028E0000027F3E54E462500203EF5404B462E00DE
:1028F000202B2DD04025ED1AAC4027437C1EA7414C
:1029000000243743C9E6802400252403134E002702
:10291000DCE527437C1EA741002479E70C00170063
:102920000E4E93E50C00170090E556462300203E1E
:10293000F34099465346202B0ED0402356469B1B0E
:102940009C4027437C1EA7414B4600241F435FE762
:102950000024D2E71700B2E50024F2E7FF070000E9
:10296000FFFF7FFFF0B557464546DE464E46E0B5D1
:102970004C000E0387B0834692461D008046360BFE
:10298000640DCF0F002C4FD06F4B9C4235D080236D
:10299000420F1B04F600134333439946C300984685
:1029A0006A4B00269C460023644403932B031B0BB5
:1029B0009B466B00ED0F50465B0D01955ED0624A61
:1029C000934253D05A46D1008022400F1204024352
:1029D0000A4393465246D1005C4A9446002263441F
:1029E0003800684084460290E41A16430F2E00D93E
:1029F000B4E0574BB6009B599F46030033439946BA
:102A00006CD100239846023308260393CEE7CB46C9
:102A10004146039A0197022A65D1019B4A4C9C4684
:102A20000023002298466BE00300334399464ED0C2
:102A3000002E00D1BCE1300001F0CAF803000B3BCE
:102A40001C2B00DDACE11D22D31A5A460100DA40EE
:102A500008398E401300334399465B468B409846B5
:102A600000233C4C0026241A03939FE751465A4604
:102A7000114329D1002293460232B1E7594601435E
:102A80001ED05B46002B00D19EE1584601F0A0F815
:102A900003000B3B1C2B00DD8FE102005946083A76
:102AA00091408B461D21CB1A5146D9400B00594607
:102AB0000B4351469B469140264B00221B1A8FE741
:102AC000002301229B468BE75146032288E700231F
:102AD0009846013304260024039367E70323B14695
:102AE00003930C2662E7032A00D15CE2019B012AD2
:102AF00000D0E4E113409C460023002400229846C5
:102B000000211203130B0A0D12051A432305124C60
:102B100040462240134362465B00D2075B081343E2
:102B2000190007B03CBC90469946A246AB46F0BDA2
:102B3000002380229C4612039846034CE0E70023C2
:102B4000014C00229846DBE7FF07000001FCFFFF75
:102B500088A502000DFCFFFFFFFF0F80D94500D9BB
:102B600039E100D134E1002346464D469A46013C06
:102B70005B460A0E1B021A430B02170C0393130445
:102B80001B0C3900280090460193FFF719FB020047
:102B9000019B83465A43280039009146FFF796FB74
:102BA000350C09040D43A9450DD95B464544013B4D
:102BB000A84500D93AE1A94500D837E102235B4294
:102BC0009C464544E3444B46EB1A390018000493F5
:102BD000FFF7F6FA019B0500434339000498994634
:102BE000FFF774FB330409041B0C0B43994509D907
:102BF00043446A1E984500D91AE1994500D817E167
:102C0000023D43444A469B1A5A4612042A430399FA
:102C10009346100C0A0C914609045A46090C4E467C
:102C20000D001204120C4543059151437243704349
:102C300052190E0CB218954203D980256D02AC468C
:102C40006044150C09041204090C28185218834218
:102C500000D2CEE000D1C8E01D1A53469E1AB245FC
:102C600092415242AB1A9A46984500D117E1390079
:102C70001800FFF7A5FA019B0500434339005046B1
:102C80000493FFF723FB04980B04310C194388428B
:102C900009D941446B1E884500D907E1884200D814
:102CA00004E1023D4144049BCB1A1800390004930F
:102CB000FFF786FA019B824643433900049801934B
:102CC000FFF704FB01980B043104090C19438842F7
:102CD0000DD953464144013B884500D9E8E088427C
:102CE00000D8E5E002235B429C464144E244019B5C
:102CF0002D04CE1A51462943059D4F462A000B0448
:102D0000080C1B0C5A4345437B4378435B19170C53
:102D1000FB189D4203D980256D02AC4660441D0C12
:102D200012041B04120C28189B18864200D293E050
:102D300000D18EE001231943A04BE318002B00DCE7
:102D400099E04A0700D09EE05A46D20106D55A467D
:102D50009B4B1A4080239346DB00E318994A934229
:102D600068DD0123029A984C1A4000239446984645
:102D70000022C5E680224B46120313420AD05B466E
:102D8000134206D11A431203120BAC4688468E4CEE
:102D9000B6E64B461A431203120BBC468A4CAFE60A
:102DA00003005A46283B9A4000239146984657E62E
:102DB000584600F00DFF203040E603005246283B05
:102DC0009A400021934677E600F002FF20305FE64C
:102DD000884500D2C7E64B46DE075D0843465B08E0
:102DE0001E434346DB079A46C2E60025924500D3C0
:102DF00033E7039E5946B446E244B245AD416D42C5
:102E00004544EB180139984507D2984200D97FE034
:102E100000D1BCE01D1A8B461FE79845FAD1039DEF
:102E20005545F2D943468B461D1A16E79B46CAE61E
:102E30001500E7E65A46C90852070A435B05904663
:102E40005C0D5A460123029952021940120B8C461E
:102E500056E6002B00D16FE746444A1EB04529D9FB
:102E60001100864200D065E7039A934200D061E7E3
:102E700062E7012149420120C21A382A21DD029B62
:102E800003409C4638E60F220A40042A00D15BE743
:102E90000A00111D914292415242934454E7474B1C
:102EA000E318002BE5DD01225242F2E71D00FAE6AD
:102EB0009A461CE7B04239D86ED011003AE7029327
:102EC0003AE71F2A3CDC20239B1A0C005846994005
:102ED00098404B1E99415B46D440D3402043084361
:102EE0001A00430709D00F230340042B05D001002B
:102EF000081D88429B415B42D21813023AD5012338
:102F0000029A01241A400023944698460022F7E5CD
:102F1000022149428C46039DE344AC46E244AA4563
:102F2000AD416D424544ED182D1A96E68A1E03996F
:102F30004D008D42894149424144761803958FE7FF
:102F40001F204042C31A5846D8400300202A28D0E8
:102F500040205D46821A954029434A1E91411943FB
:102F6000072300220B4009D00F2300220B4008004A
:102F7000042BBDD1010053075202120BC90819439B
:102F8000012388460299002419408C46B8E5524531
:102F9000BED88B46002560E6039D9D42C6D3110036
:102FA00062E70025D8E780225B4612031A43019BA3
:102FB0001203120B9C468846034CA1E5FF03000058
:102FC000FFFFFFFEFE070000FF070000F0B55746B9
:102FD0004546DE464E46E0B50C0398464E00230BB0
:102FE00087B0070092469B46760DCD0F002E6BD022
:102FF0006D4B9E4235D080245B46420F2404DB009B
:1030000014431C43C3009946684BA3469C460023C7
:1030100000276644029343461C035A00DB0F5046C8
:10302000240B520D984600D176E05F4B9A426DD04A
:103030008023410F1B040B435C49E4008C461C4376
:10304000C300002062444146B6186940721C0191D9
:10305000944607430F2F00D9B0E0554ABF00D2591C
:1030600097465B460343994600D087E000239B4682
:10307000023308270293CEE742460192022867D026
:10308000032800D10EE2012800D062E100230024D1
:103090000022994601990140CDB2002112030B0D87
:1030A000120B1B051343434A240513401C436400C1
:1030B000ED0764082C434846210007B03CBC90460D
:1030C0009946A246AB46F0BD034399464FD05B46B6
:1030D000002B00D189E1584600F07AFD03000B3B3C
:1030E0001C2B00DD7AE11D22D31A3A0001005C4658
:1030F000DA4008398C4013008F4023439B46B94681
:1031000000232D4E0027361A029384E753462343AB
:103110002AD10024022096E75346234320D0002CD6
:1031200000D157E1200000F053FD03000B3B1C2BA6
:1031300000DD49E11D21CB1A51460200D94053461A
:10314000083A944093400C431B4A121A00207AE735
:103150000125019B144C1D400023002299469CE749
:103160000024002201206EE7534603206BE7002372
:103170009B4601330427002602934CE70323814634
:103180000C27029347E7802200230025120399466B
:10319000054C82E75C464B4602986FE75C464B461F
:1031A000019502986AE7C046FF07000001FCFFFF97
:1031B000C8A50200FFFF0F800DFCFFFF4A464946ED
:1031C000170C1A0C1B041B0C08041900000C4143BB
:1031D0001500884619007D437943039589462900E7
:1031E000150045434D44029545462D0CAA46029DC7
:1031F0005544A94506D98A46802149028946CA44D0
:1032000051460391290C0491414609042D04090CEF
:1032100088462900250C24044144240C05912100F2
:1032200041438846210079438A46684341465044D9
:103230008146080C48446F43824503D980214902E6
:1032400089464F44010C8946390049440291414660
:103250000F0404993F0C88460004C019804441467D
:10326000049159460F0C0904090C884659438A46B3
:1032700039005143894641464A435146090C8B4621
:103280007B43D2185A44934203D980235B029B4666
:10329000D94451460904090C8A46414661437C439E
:1032A000130C12044B445244A1468A463C0041464A
:1032B0006C434D4351464D440F0C7D19A94503D92C
:1032C0008021490288464444049F0399B8464144FA
:1032D0008B468345804141428846514608042F046D
:1032E000000C3F18584602991018894690429241A6
:1032F0004F44BA46524299469346C244D144CB44C5
:103300008F42BF41C245894199459B4193459241B6
:103310007F4249422D0C52420F435B4213437F19B7
:10332000FF185B463C19DB0D059A64021C434302FF
:1033300013435D1EAB415A46C00D03435202134373
:10334000E20156D501205A0803401343E207134314
:1033500064085A48604400284DDD5A0709D00F22FE
:103360001A40042A05D01A1D9A429B415B42E41878
:103370001300E20104D58020514AC000144060448B
:10338000504A904200DDE3E60125DB0862071A435C
:103390006402019B9146220B4405640D1D407CE6AE
:1033A000802259461203114208D0144206D122430A
:1033B0001203120B45469946434C6EE65B461A4390
:1033C0001203120B404C68E603005446283B9C4015
:1033D0000023B9E600F0FCFB2030A6E60300283B02
:1033E0009F400023BB4699468AE600F0F1FB20305F
:1033F00074E6B446ADE701252A1A382A06DD019B9A
:1034000000241D4000230022994646E61F2A21DCA5
:1034100020252000AD1A1E00AB40A840D6405D1EFE
:10342000AB4130431843D440430709D00F23034036
:10343000042B05D00300181D98429B415B42E41801
:10344000230221D50125019B01241D4000230022D8
:10345000994622E61F2521006D42281AC140080026
:10346000202A1DD05F35AA1A944023435C1EA34135
:10347000072503431D400022002D09D00F22002400
:103480001A401800042AD6D1030065076402220BF3
:10349000DB082B4301259946019B00241D40FCE5D8
:1034A0000024E2E78022012512032243019912033E
:1034B000120B0D409946044CEFE5C046FF03000097
:1034C000FFFFFFFEFE070000FF070000F0B54646C5
:1034D000D6464F460C03C0B5CD0F4E00610A440FCF
:1034E0000C43C1005800400D84468A460F00190362
:1034F000500F490A0143C648760DA846DB0FD2009B
:10350000844500D1D8E001204340AB4200D1A6E081
:103510006046351A002D00DC05E1002810D10B00B3
:10352000134300D1D7E06B1E002B00D04BE1534674
:103530009F1ABA458041641A4042241A01261EE0AF
:10354000B34B9E4248D080231B041943382D00DD25
:1035500019E11F2D00DD4CE120230F005B1B100043
:103560009A409F40E840531E9A41E9400743174361
:103570005346DF1B611ABA45A44164420C1B230267
:1035800000D4C5E06402650A002D00D1F6E02800F1
:1035900000F01EFB0300083B1F2B00DDE9E02022AA
:1035A0003C00D21A9D40D4409F4025439E4200DDFE
:1035B000DBE09E1B731C1F2B00DD0AE1202238007C
:1035C000D21A290097402C009140D8407A1E97418A
:1035D000DC40002601430F437B0709D00F233B400B
:1035E000042B05D03B1DBB42BF417F42E4191F00A5
:1035F000230225D5864B01369E4200D1AFE0854B94
:1036000001251C4043466207FF0864027605174304
:10361000240B760D1D4000212403230B0C0D7E4A44
:1036200024051C431440330523435B00ED075B086E
:103630002B43380019001CBC90469946A246F0BDA9
:10364000012543466207FF081743E4081D40704BFD
:103650009E4236D024037605240B760DDBE76346C5
:10366000F31A002B00DC94E06046002835D068484F
:103670008642B1D080273F043943382B00DCFDE07F
:103680000A43170000217A1E97415744574580414D
:10369000091944420C1923023AD55D4B01369E426A
:1036A00000D14BE101225B4B1C407B0817401F43BC
:1036B000E207174364088FE70800104300D024E7AF
:1036C00021E723003B4300D1B9E1802212031443D8
:1036D0002403240B9FE72E007EE70800104300D14F
:1036E000CAE0581E8446002800D0E7E05244524504
:1036F000804164184042241817000126230207D590
:103700000226CFE764462C4300D1B3E12C00674684
:103710007B0700D062E76307FF081F43012543468C
:10372000E4081D4093E7002D78D1751C6D056D0DE3
:10373000012D00DCF2E05046801A8245BF41651A37
:103740007F42ED1B8446280200D48CE05046171AB5
:10375000BA4292410C1B5542651B984614E701255D
:10376000434600241D40002755E72A4CF61A2C40FA
:1037700032E73D0028388540002717E7380000F081
:1037800027FA203006E70A43170000217A1E9741E6
:10379000EEE6002B00D0E5E0731C9C465B055B0D5C
:1037A000012B00DC9FE01A4B9C4500D1C5E0524440
:1037B00052458041641840422418E70752081743D5
:1037C0006408664608E71248854200D185E01D007E
:1037D000BCE629001F3EF140202B00D17FE04022B3
:1037E000D31A9D402F437D1EAF4100240F43002676
:1037F0008EE72B000F00203BDF40202D71D04023AF
:103800005D1BA9400A43511E8A4100211743AFE6C0
:10381000FF070000FFFF7FFFFFFF0F80002E3ED05D
:10382000B34EB44545D0802636046D423443382D1E
:1038300000DDA8E01F2D00DD1FE1202627005046F7
:10384000761BB740E84007435046B040461EB041A3
:10385000EC403843171ABA4292410C1B5242A41A48
:10386000664698468BE6644667462C4300D08BE656
:10387000002500260027EAE61E00ADE61F2B60DCCF
:103880002027F81A0F00844687401000D8400743CD
:1038900060468240501E8241D9401743F5E626001B
:1038A0005046064305D0ED43002DD3D0904EB4458D
:1038B000BDD10C001700664698468DE68C488342C1
:1038C0000BD06346D9E6002D00D096E008001043E7
:1038D00000D1E2E00C0017009846854E7CE60025FA
:1038E00080E700218EE7230050460343002E00D0DE
:1038F000A8E0002B00D1DEE00B00134300D16BE603
:103900005244524580416418404224181700230253
:1039100000D4FDE6774B66461C405DE62500504628
:103920000543002ECFD1002D4FD10C00144300D100
:10393000A0E00C00170098464EE6664600240027DB
:1039400085E61F000800203FF8400700202B00D12B
:103950008EE04020C31A99400A43511E8A4100213B
:10396000174392E6002E14D126005046064362D03B
:10397000DB43002B5CD18718974292416418524276
:10398000A418664687E650462043441EA041002402
:1039900060E7574EB4454ED0802636045B42344330
:1039A000382B00DD7FE01F2B00DD8BE02026270079
:1039B0005046F61AB740D84007435046B040461E1E
:1039C000B0410743DC40BF18D6E70D00154300D1D6
:1039D00002E65046801A8245BF41651A7F42ED1BC0
:1039E0008446280200D48DE65046171ABA42924106
:1039F0000C1B5242A41A9846EEE50D00154300D167
:103A00006BE750466707C00807438020E4080003BF
:103A1000044207D0CD08054204D12C009846D708AF
:103A200049070F437B0FE4001C43FF00304ED3E5F2
:103A30002F4EB445B4D10C0017006646CCE50027E4
:103A40000024E8E5002B39D00B00134300D144E7F4
:103A5000C008670707438020E40800030442E1D060
:103A6000CB080342DED1D70849070F431C00D9E732
:103A7000002171E700250027E9E52E002700203E00
:103A8000F740202D2FD04026751BAC4050462043D8
:103A9000441EA04100243843DCE680240025240392
:103AA000134E0027D3E5504620430700781E874178
:103AB0000024BF1860E70C0017008DE50C0017000C
:103AC0000B4E89E51E002700203EF740202B0CD02E
:103AD0004026F31A9C4050462043441EA041074311
:103AE0000024BF1848E70024D0E70024F3E7C046CD
:103AF000FF070000FFFF7FFF30B5134D0A034B00A7
:103B0000120B5B0DC90F0024AB4210DD0F4CA3421A
:103B10000FDC80240E4D64032243ED1A1F2D0BDDB4
:103B20000C48C31ADA405442002900D11400200086
:103B300030BD094BCC18FAE7084CE840A446634472
:103B40009A400243EFE7C046FE0300001D04000058
:103B50003304000013040000FFFFFF7FEDFBFFFFB5
:103B600010B5041E28D000F033F8154B154A1B1A67
:103B7000D21A1F2A15DD144AD21A944000222403B7
:103B80005B05240B5B0D0021100024030A0D240BA0
:103B9000120522430D4C1B05224013435B005908BC
:103BA00010BD210091400A000B21081AC4405B059A
:103BB0002403240B5B0DE6E7002300240022E2E748
:103BC0001E0400003304000013040000FFFF0F80F8
:103BD0001C2101231B04984201D3000C10391B0A3D
:103BE000984201D3000A08391B09984201D3000901
:103BF000043902A2105C40187047C0460403020258
:103C000001010101000000000000000070B5002665
:103C10000C4D0D4C641BA410A64209D1002626F0C1
:103C20003FFD0A4D0A4C641BA410A64205D170BD8D
:103C3000B300EB5898470136EEE7B300EB589847CE
:103C40000136F2E7ACA60200ACA60200ACA6020068
:103C5000B0A6020003008218934200D17047197089
:103C60000133F9E70FB40B4B13B51C68002C05D0DA
:103C7000A369002B02D1200000F0F2FA05AB049AF0
:103C8000A1682000019300F0C7FC16BC08BC04B07A
:103C90001847C0460C00002070B505000E00002833
:103CA00004D08369002B01D100F0DAFAAB69AC686B
:103CB000002B02D1280000F0D3FA244B9C420FD1F4
:103CC0006C68A3891B0702D52369002B20D1210032
:103CD000280000F057F900281AD00120404270BD9A
:103CE0001B4B9C4201D1AC68EBE71A4B9C42E8D1DC
:103CF000EC68E6E7013B0136A360002B04DAA26919
:103D0000934216DB0A2914D023685A1C22601970CA
:103D10003178A3680029EDD1013BA360002B0FDAB5
:103D200022000A31280000F0D7F8431CD5D00A2021
:103D3000D5E72200280000F0CFF8431CE8D1CCE7FB
:103D40000A2023685A1C22601870C8E72CA60200BB
:103D50004CA602000CA6020010B5034B0100186827
:103D6000FFF79AFF10BDC0460C0000204A424A41AE
:103D7000802310B55200DB0000F002F810BD0000F7
:103D8000F0B51D004F4B85B01E6804000F00009277
:103D9000002E05D0B369002B02D1300000F060FA8C
:103DA000494B9C4250D17468009B022B05D0012BDB
:103DB00000D984E0002D00DA81E02100300000F01D
:103DC000E1F9616B002908D023004433994202D005
:103DD000300000F051FB002363630023A3616360A4
:103DE000A3891B0603D52169300000F045FBA38998
:103DF000364A1340A381009B022B5AD003AB02AA80
:103E00002100300000F0C2FAA3891843A081002DE0
:103E100024D1029D280000F025FB0195071E42D108
:103E2000029B0193AB4239D1012040420223A28977
:103E30001343A3810023A36023004733236023613E
:103E40000123636105B0F0BD214B9C4201D1B468F0
:103E5000AAE7204B9C42A7D1F468A5E7002FD9D050
:103E6000B369002B02D1300000F0FAF9009B012B5E
:103E700003D1A389009A1A43A2810820A38927604D
:103E800027616561184018D001201840002398422E
:103E900011D06D42A360A5611800D3E7019800F02E
:103EA000E1FA071EC0D08023A289019D1343A3819C
:103EB000D6E70020BAE7A560C4E7A060C2E701200A
:103EC0004042BFE70C0000202CA602005CF3FFFF7D
:103ED0004CA602000CA60200F8B505000E00140066
:103EE000002804D08369002B01D100F0B9F9224BDE
:103EF0009C422DD16C68A369A360A3891B0731D5AF
:103F00002369002B2ED023682269F7B2981A6369BF
:103F1000F6B2984205DB2100280000F033F90028B2
:103F200026D1A3680130013BA36023685A1C22609C
:103F30001F706369984204D0A389DB071AD50A2E43
:103F400018D12100280000F01DF9002812D00FE040
:103F50000A4B9C4201D1AC68CDE7094B9C42CAD1C7
:103F6000EC68C8E72100280000F00CF80028CAD04F
:103F7000012676423000F8BD2CA602004CA60200B5
:103F80000CA60200364B70B51D6806000C00002D13
:103F900005D0AB69002B02D1280000F061F9314B4C
:103FA0009C420FD16C680C23E25E93B219072DD4AA
:103FB000D90611D409230120336037331343A38179
:103FC000404270BD284B9C4201D1AC68EBE7274BC7
:103FD0009C42E8D1EC68E6E75B0713D5616B0029EA
:103FE00008D023004433994202D0300000F044FA54
:103FF000002363632422A3899343A3810023636086
:10400000236923600823A2891343A3812369002B1A
:104010000BD1A0218022A389890092000B409342FA
:1040200003D02100300000F0D9F90123A289134008
:1040300011D00023A36063695B42A3610020236960
:104040008342BED10C23E25E1306BAD5402313434C
:10405000A3810138B5E7920700D46369A360EDE757
:104060000C0000202CA602004CA602000CA60200A8
:10407000F7B58A8905000C00130760D44B68002B44
:1040800004DC0B6C002B01DC0020FEBDE76A002F76
:10409000FAD000232E682B6080235B011A4034D0B5
:1040A000606DA3895B0706D56368C01A636B002B3C
:1040B00001D0236CC01A0200216A00232800E76A9D
:1040C000B847A189431C06D12B681D2B31D82C4A37
:1040D000DA40D3072DD50023636023692360CB0426
:1040E00005D5431C02D12B68002B00D16065616BA4
:1040F0002E600029C8D023004433994202D0280002
:1041000000F0BAF900206063BFE70123216A2800AC
:10411000B847431CC5D12B68002BC2D01D2B01D042
:10412000162B01D12E60AFE74023A2891343A38150
:10413000ABE740230B430120A3814042A5E70F6971
:10414000002FA1D00B680F60DB1B019300239207A7
:1041500000D14B69A360019B002B00DC94E7019B1D
:104160003A00216A2800A66AB047002803DC4023F1
:10417000A2891343DFE7019B3F181B1A0193EAE76B
:10418000010040200B6970B505000C00002B01D127
:10419000002070BD002804D08369002B01D100F0FD
:1041A0005FF80B4B9C4209D16C680C22A35E002B7C
:1041B000EED021002800FFF75BFFEAE7054B9C42A9
:1041C00001D1AC68F1E7044B9C42EED1EC68ECE71E
:1041D0002CA602004CA602000CA6020010B5024953
:1041E00000F0B2F810BDC04685410000002310B5B4
:1041F000040003604360836081814366C281036180
:1042000043618361190008225C30FFF723FD054BF1
:1042100024626362044BA362044BE362044B236396
:1042200010BDC046854B0000AD4B0000E54B0000C3
:10423000114C000070B568254A1E55430E00290038
:10424000743100F063F9041E08D000212A000160D7
:1042500046600C30A0606832FFF7FCFC200070BDA7
:10426000836913B50400002B28D18364C3640365FC
:10427000134B144A1B6882620193984201D10123B7
:104280008361200000F020F86060200000F01CF83E
:10429000A060200000F018F80022E06004216068AF
:1042A000FFF7A4FF01220921A068FFF79FFF022268
:1042B0001221E068FFF79AFF0123A36113BDC046F6
:1042C00008A60200DD410000F8B51E4B07001E687D
:1042D000B369002B02D13000FFF7C2FF4836B46843
:1042E0007368013B04D53368002B07D03668F6E7C6
:1042F0000C22A55E002D0DD06834F2E704213800B1
:10430000FFF798FF30600028F0D10C2304003B60D9
:104310002000F8BD012320005B42E3810233A3812A
:1043200065662560A560656025616561A5610822F7
:1043300029005C30FFF78EFC6563A563A564E56426
:10434000E6E7C04608A60200F7B50400070000260D
:1043500001914834002C01D13000FEBD6368A5688E
:104360000093009B013B009301D52468F2E7AB89E1
:10437000012B08D90E22AB5E013304D0290038008E
:10438000019B984706436835EBE7000070B50E00C7
:104390001D000E23C95E90B01400002907DA002327
:1043A0002B60B3891B0611D48023DB000FE001AA28
:1043B00000F05AFC0028F2DBF022029B12021340AC
:1043C000054A9B185A4253412B60EDE740230020D9
:1043D000236010B070BDC04600E0FFFFF7B50226B5
:1043E0008B8905000C00334206D02300473323603D
:1043F000236101236361F7BD01AB6A46FFF7C6FF86
:1044000000990700280000F081F8002808D10C224C
:10441000A35E9A05EFD4032293431E43A681E4E7EB
:104420000F4BAB628023A28920601343A381009BC2
:1044300020616361019B002B0DD00E23E15E2800FB
:1044400000F024FC002806D00322A38993431A001D
:1044500001231343A381A0893843A081CBE7C04641
:10446000DD41000010B5034B0100186800F04EF864
:1044700010BDC0460C00002070B50500002910D00A
:104480000C1F2368002B00DAE418280000F02FFC32
:104490001D4A1368002B05D163601460280000F0EA
:1044A00027FC70BDA34209D9216860188342F3D16B
:1044B00018685B6841182160EEE713005A68002A0B
:1044C00001D0A242F9D919685818A0420BD120682E
:1044D0000918581819608242E0D1106852684118D2
:1044E00019605A60DAE7A04202D90C232B60D5E7A5
:1044F00021686018824203D1106852684118216017
:1045000062605C60CAE7C046FC000020032370B50F
:10451000CD1C9D43083506000C2D1ED20C25A9424A
:104520001DD8300000F0E3FB254A14682100002963
:1045300019D1244C2368002B03D1300000F010FB6C
:1045400020602900300000F00BFB431C2CD10C2311
:104550003000336000F0CCFB03E0002DDFDA0C23E9
:104560003360002070BD0B685B1B1AD40B2B03D982
:104570000B60CC18256003E08C420ED16368136099
:10458000300000F0B5FB200007220B30231D9043C4
:10459000C31AE7D05A42E250E4E74B6863600C006C
:1045A000EEE70C004968C2E70323C41C9C43A04209
:1045B000E0D0211A300000F0D3FA431CDAD1C6E76C
:1045C000FC00002000010020936810B5013B9360BF
:1045D000002B05DA9469A34208DBCBB20A2B05D085
:1045E0001368581C10601970C8B210BDFFF774FC36
:1045F000FBE7F8B506000F001400D518AC4201D156
:10460000002007E021783A003000FFF7DDFF013499
:10461000431CF3D1F8BD0000F0B59FB006000F00B9
:1046200014000593002804D08369002B01D1FFF703
:1046300017FE7F4B9F425CD17768BB891B0762D511
:104640003B69002B5FD0002306AD6B6120336B7696
:104650001033AB760294029C2378002B5DD1029B31
:10466000E31A04930DD0049B029A39003000FFF73F
:10467000C0FF431C00D1CCE06A69049B94466344AC
:104680006B612378002B00D1C3E00122002352424A
:104690006A6002A95432521801342B60EB60AB609F
:1046A0001370AB6521780522624800F015FB631C8E
:1046B0009C46002835D12968CB0604D5532302AA8D
:1046C00020309B1818700B0704D553232B2002AA07
:1046D0009B18187023782A2B2CD000200A21099BC4
:1046E0002278303A092A00D86BE000282AD00993B2
:1046F00028E0514B9F4201D1B7689EE74F4B9F4244
:104700009BD1F76899E739003000FFF73BFC0028A0
:1047100099D0012040421FB0F0BD252B9FD001341D
:104720009AE7444B2968C01A012383400B432B604E
:104730006446B7E7059B181D1B680590002B3ADB04
:104740000993644623782E2B0BD16378621C2A2BA5
:104750003FD1059B02341A1D1B680592002B35DBE7
:10476000079321780322364800F0B6FA002807D0D4
:10477000334B2A68C01A4023834013432B60013413
:104780002178631C06222F480293297600F0A4FAB0
:10479000002844D02C4B002B2FD12968059B0722E1
:1047A000C90528D59B189343083305936B69039A71
:1047B0009B186B614FE75B42EB6002230B432B605E
:1047C000BFE74B4301349B18012089E701235B427B
:1047D000C6E7002314000A201A006B6021783039E4
:1047E000092903D9002BBCD00792BAE74243013410
:1047F00052180123F2E70733D5E705AB00933A00DF
:10480000124B2900300000E000BF0390039B0133EE
:10481000CCD1BB895B0600D57BE70B987BE705AB6A
:1048200000933A00094B2900300000F07FF8ECE7D4
:104830002CA602006CA602004CA602000CA60200E8
:1048400072A6020076A6020000000000F3450000F8
:10485000F7B5150001938A680B6900900C0093422C
:1048600000DA130022002B6043321278002A01D0B4
:1048700001332B6023689B0602D52B6802332B6023
:10488000062723681F4027D0230043331B785A1E76
:1048900093412268920630D4220001994332009855
:1048A000089EB047431C25D0062320682A68E1688B
:1048B00003400025042B03D18D1AEB43DB171D4069
:1048C000A3682269934201DD9B1AED180027BD42BF
:1048D00020D1002010E00137E3682A689B1A9F422C
:1048E000D2DA22000123193201990098089EB047BC
:1048F000431CF0D101204042FEBD3020E11843317D
:10490000087021005A1C45310978A218433202333D
:104910001170C1E7220001231A3201990098089E04
:10492000B047431CE6D00137D1E70000F0B58BB0AB
:1049300006920A0043320793059004920A7E0C0007
:10494000109B6E2A00D18FE017D8632A2CD008D88C
:10495000002A00D199E0582A54D0260042363270FD
:1049600029E0642A01D0692AF7D121681A6808066B
:1049700023D5111D1960156825E0732A00D188E040
:1049800008D86F2A29D0702AE7D1202209680A4363
:10499000226003E0752A20D0782ADED12200782117
:1049A000453211706C4A30E00E001A684236111D13
:1049B000196013683370012379E04906D9D5111DB8
:1049C00019600023D55E002D03DA2D23049A6D4271
:1049D0001370624B0A2703932FE0206819680506BD
:1049E00003D5081D18600D6805E04006F9D50D686F
:1049F000081D1860ADB2594B082703936F2A18D0D1
:104A00000A2716E045310A70544A03921A68216851
:104A1000101D18601568080622D5CB0702D5202383
:104A2000194321601027002D03D1202322689A43C7
:104A300022602300002243331A706368A360002BB6
:104A40005CDB0422216891432160002D58D1049E33
:104A5000002B64D02600039B42361B7833705EE047
:104A60004806DAD5ADB2D8E709681A68080605D550
:104A7000111D1960136862691A6006E04906F7D5CE
:104A8000111D19601368A28A1A800023049E2361F5
:104A900054E01A68111D1960166800216268300020
:104AA00000F01AF9002801D0801B60606368236160
:104AB0000023049A137041E0236932000699059897
:104AC000079DA847431C43D0236800259B070FD4AC
:104AD000099BE06898423DDA18003BE02200012380
:104AE000193206990598079EB047431C30D001350E
:104AF000E368099A9B1A9D42F0DBE9E7002DA9D0F3
:104B0000049E28003900FDF7E1FB039B013E5B5C3E
:104B1000280033703900FDF753FB051EF1D1082F33
:104B200009D12368DB0706D563682269934202DC5A
:104B30003023013E3370049B9B1B2361079B09AA12
:104B400000932100069B0598FFF782FE431CB3D11A
:104B5000012040420BB0F0BD8EA602007DA60200EF
:104B6000002370B5064C050008002360FCF77AFDB1
:104B7000431C03D12368002B00D02B6070BDC046BE
:104B80006001002070B50C000E25495F00F0B2F8FE
:104B9000002803DB636D1B18636570BDA389024A9F
:104BA0001340A381F9E7C046FFEFFFFFF8B51F00F0
:104BB0008B8905000C001600DB0505D50E23C95EA8
:104BC0000022022300F074F8A389054A280013404C
:104BD000A38132000E23E15E3B0000F01FF8F8BD18
:104BE000FFEFFFFF70B50C000E25495F00F060F885
:104BF000A389421C03D1054A1340A38170BD8022C2
:104C000052011343A3816065F8E7C046FFEFFFFF41
:104C100010B50E23C95E00F015F810BD70B5050083
:104C2000080011000022064C22601A00FCF700FD6B
:104C3000431C03D12368002B00D02B6070BDC046FD
:104C400060010020002370B5064C050008002360B9
:104C5000FCF718FD431C03D12368002B00D02B6008
:104C600070BDC04660010020002370B5064C0500F1
:104C7000080011002360FCF708FD431C03D12368E2
:104C8000002B00D02B6070BD60010020002370B5A8
:104C9000064C050008002360FCF7FCFC431C03D114
:104CA0002368002B00D02B6070BDC046600100203F
:104CB00070B50500080011000022064C22601A00A1
:104CC000FCF7EAFC431C03D12368002B00D02B60C7
:104CD00070BDC04660010020C9B28218904201D167
:104CE0000020704703788B42FBD00130F6E7704715
:104CF0007047000070B50500080011000022064C46
:104D000022601A00FCF778FC431C03D12368002BB7
:104D100000D02B6070BDC04660010020000800423A
:104D2000000C004200100042001400420018004233
:104D3000001C004241554449454E434500020000D5
:104D4000BA9E5F5A05000000000000001700000036
:104D5000F022002056760510D11E01000101B0118D
:104D60005BF218FC11E8BDA4F834416746F6000078
:104D70008C28002000000000000000005665723AF8
:104D8000413131302E31312E36315F4237333432BA
:104D9000355F4B4E5F5651000000000000000000E0
:104DA0000000000000000000000000000000000003
:104DB00074000000C8200020F94D454DC00E1602B9
:104DC00003000000030000000100000005000000D7
:104DD000010000000400000002000000AF01FA0121
:104DE00041008C0006000F003E000300010000009F
:104DF00010000C0002000000000000000000000095
:104E00000000000001000000010D01004000000052
:104E1000070000000B000000000000000F00000071
:104E20000100000000000000007D00000400000000
:104E3000803E000004000000007D00001000000023
:104E4000803E0000090000000A100400D375B5D3AD
:104E50000A000000F02600200002200000000000F0
:104E60008403000078000000040004040000000037
:104E70000001000020000000002D310100000000B2
:104E800000000200000800000A0020004A00410063
:104E900081008100190000010100000101000101F1
:104EA0000100010101000100010001000100900169
:104EB00000000000000000000F00000001000000E2
:104EC00000000000010000000100000001000000DF
:104ED00001000000010000000000000000000000D0
:104EE00001000000100000000000000000000000B1
:104EF0000D000000010000000D0000000100000096
:104F0000E803020081010000010000000100000030
:104F1000000000000020042001000000010001004A
:104F20000100010001000100010001000100010079
:104F30000100010090010000542300200000000047
:104F40000000000033330000001E0102005801027F
:104F500000520102004C0102004901020046010218
:104F600000430102804101020000000204500202DD
:104F7000000100000101000002020000804F120049
:104F800001000000C80000006A0000004C2300205F
:104F900001FF00060000000000000000D9770100BA
:104FA00000000000D977010000000000D9000000D7
:104FB0000000000099FF010000000000DD0000007B
:104FC00000000000DD00000000000000DD00000027
:104FD00000000000DD00000000000000DD00010016
:104FE00000000000D900000000000000D977000098
:104FF00000000000DAEE000000000000DD77000095
:1050000000000000DD55000000000000DD2200006F
:1050100000000000DD000000000000044019010055
:10502000DC820000F81E000000000000000000000C
:105030000000000000000000000000000000000070
:105040000000000000000000000000000000000060
:105050000000000000000000000000000000000050
:105060000000000000000000000000000000000040
:105070000000000000000000000000000000000030
:105080000000000000000000000000000000000020
:10509000000000000000000001000000000000000F
:1050A0000000000000000000000000000000000000
:1050B00000000000000000000000000000000000F0
:1050C00000000000000000000000000000000000E0
:1050D00000000000000000000000000000000000D0
:1050E00000000000000000000000000000000000C0
:1050F00000000000000000000000000000000000B0
:10510000000000000000000000000000000000009F
:105110000000000000000000050000000100000683
:10512000000000010000000001000000FF0000007E
:1051300001000000000000009A000000502500203F
:105140003380000042800B00308005000C80021488
:105150000D8009000C8002100D80090032802900AA
:1051600033800000308004000C80000A0D800F00A6
:105170000C8002100D800300428003001580000C9B
:10518000329004003380000042800A003080040026
:105190000C8002140D8008000C8002100D800800A5
:1051A00032802900338000003080010035801000FB
:1051B000348002002A800000328006001580000C36
:1051C00017800350188000003380000030800100F9
:1051D00035801000348002002A80010032800600F1
:1051E0001580000C178003501880000033800000E9
:1051F0003080010035801000348002002A800200D7
:10520000328006001580000C1780035018800000C3
:1052100033800000308001003580100034800200AF
:105220002A800000328008001580000C1580000DD7
:105230001780035018800000338000003080010088
:1052400035801000348002002A800100328008007E
:105250001580000C1580000D178003501880000089
:10526000338000003080010035801000348002005F
:105270002A800200328008001580000C1580000D85
:1052800017800350188000000C80070A0D80000072
:105290000C80040A0D8001000C80000A0D801700AC
:1052A0000C800C0A0D8001000C800A0A0D800100A0
:1052B0000C80020A0D8000000C80030A0D800000A3
:1052C0000C80080A0D8001000C80050A0D80010089
:1052D0000C80010A0D8001000C80060A0D80000080
:1052E00009000000000008000000000000000000AD
:1052F0005025002008000000000009000000000008
:1053000000000000702500200700000000000800D9
:1053100000000000000000009425002006000000AE
:10532000000009000000000000000000B42500207B
:10533000050000000000090000000000000000005F
:10534000D825002004000000000009000000000033
:1053500000000000FC2500200300000000000A00FF
:1053600000000000000000002026002002000000D5
:1053700000000A0000000000000000004826002095
:105380000100000000000A00000000000000000012
:10539000702600203300000000001600000000000E
:1053A000000000009826002000000000723675877B
:1053B00041554449454E434500020000A49E5F5AB2
:1053C00009000000040C602010000000902800205C
:1053D00056760510D11E010001015665723A413121
:1053E00031302E31312E36315F4237333432355F32
:1053F0004B4E5F565100000000000000000000000E
:10540000000000000000000000000000000000009C
:10541000010000009800002000000000AB0900001F
:10542000002900200903380900070B05E008078060
:1054300000000000013E023E041805020100023E89
:10544000041805030A0F00101000111100121200B9
:10545000131300141400151500160C00170D00008E
:1054600000000000701C6020C41C6020841C6020B0
:10547000AC1C6020A41D6020CC1D6020041E602098
:10548000281E6020B01E6020401F6020A81F6020E2
:10549000A4206020E41F602058206020F0206020BD
:1054A00094216020B0216020C8216020E02160208C
:1054B000002260201C22602038226020842260208C
:1054C000A8226020FC2260205C2360207C236020D6
:1054D00014236020982360200000000000000000DA
:1054E0000000000080830000838301000B830B0019
:1054F0008C830C008D830D000E830200108303004B
:105500001A830400208305002183060024830700FA
:10551000AE830800AF830900B1830E006D830A00DB
:10552000C0831500D2831600228317009C831800C5
:10553000EF831B00C2831900C4831A00A5860000F4
:10554000A8860100A6840000AA8401006E840200DF
:1055500016850000978501009885020027850300C5
:10556000EC8504001381020014810300958104007E
:105570001D810400B0810700B2810000B3810100E9
:10558000B4810500B5810600B60E0000B70E01001B
:10559000B80E0200390E0300F2830F00F3831000EF
:1055A0007483110075831200F6831300F7831400CF
:1055B000918900002C831C00000000000000000006
:1055C00000000000000000000000000000000000DB
:1055D00000000000000000000000000000000000CB
:1055E0000000000000000000000000003C403D3EC4
:1055F00000000000000000000000000000010203A5
:1056000001000000000A4002010C220324022406CB
:105610002425070010100150080005500C0005500B
:1056200020100150100002500010015004000550DD
:1056300004100650F7FFFFFF01000000FBFFFFFF13
:1056400002000000E0FFFFFF04000000FF6BFEFF10
:1056500020000000F7FFFFFF01000000FBFFFFFF3D
:10566000020000000500000014000000E5FFFFFF3D
:1056700004000000FF6BFEFF20000000000000009F
:105680000000000000800100100000001F0000006A
:105690001400000004000000120000009BFFFFFF48
:1056A00021000000FFEBFFFF00000000F7FFFFFFFD
:1056B00001000000FBFFFFFF2200000000000000CF
:1056C00000000000FFFBFFFF200000000B0B0D0D92
:1056D0000D0E0F000B0B0C0C0C0E0F000B0B0B0B1D
:1056E0000B0E0F000001020307040A0A000000006D
:1056F000000000000C000700FFFFFFFF000000009B
:105700000000000008000700FFFFFFFF000000008E
:10571000000000000C08FFFF000000000000000077
:105720000000000000000000000000000000000079
:1057300000000000FF0000000C010700FFFFFFFF5A
:10574000000000000000000008050700FFFFFFFF49
:1057500000000000000000000C08FFFF0000000037
:105760000000000000000000000000000000000039
:105770000000000000000000FF0300010C01070012
:10578000FFFFFFFF00000000000000000806070008
:10579000FFFFFFFF00000000000000000C08FFFFFB
:1057A00000000000000000000000000000000000F9
:1057B000000000000000000000000000FF030002E5
:1057C0000C010700FFFFFFFF0000000000000000C9
:1057D00008000700FFFFFFFF0000000000000000BE
:1057E0000C08FFFF000000000000000000000000A7
:1057F00000000000000000000000000000000000A9
:10580000FF2700040C000700FFFFFFFF000000005F
:1058100000000000FFFFFFFF00000000000000008C
:10582000000000000C101418FFFF00000000000032
:105830000000000000000000000000000000000068
:1058400000000000FF9000050C010700FFFFFFFFB4
:105850000000000000000000FFFFFFFF000000004C
:1058600000000000000000000C101418FFFF0000F2
:105870000000000000000000000000000000000028
:105880000000000000000000078000060C03070075
:10589000FFFFFFFF0000000000000000FFFFFFFF10
:1058A0000000000000000000000000000C101418B0
:1058B000FFFF0000000000000000000000000000EA
:1058C000000000000000000000000000078000074A
:1058D0000C0107000D020700FFFFFFFF00000000A2
:1058E000FFFFFFFF000000000000000000000000BC
:1058F0000C100D111418FFFF000000000000000044
:105900000000000000000000000000000000000097
:10591000078000080C010700FFFFFFFF00000000E8
:105920000000000008000700FFFFFFFF000000006C
:10593000000000000C08FFFF000000000000000055
:105940000000000000000000000000000000000057
:1059500000000000FF0700090C0007000D10070001
:10596000FFFFFFFF0000000008000700091007000C
:10597000FFFFFFFF000000000C080D09FFFF000003
:105980000000000000000000000000000000000017
:105990000000000000000000FF08000F0C100700CE
:1059A000FFFFFFFF0000000000000000FFFFFFFFFF
:1059B0000000000000000000000000000C1014189F
:1059C000FFFF0000000000000000000000000000D9
:1059D000000000000000000000000000FF90002810
:1059E0000C010700FFFFFFFF0000000000000000A7
:1059F00008050700FFFFFFFF000000000000000097
:105A00000C08FFFF00000000000000000000000084
:105A10000000000000000000000000000000000086
:105A2000FF6300290C010700FFFFFFFF00000000DB
:105A30000000000008060700FFFFFFFF0000000055
:105A4000000000000C08FFFF000000000000000044
:105A50000000000000000000000000000000000046
:105A600000000000FF63002A0C010700FFFFFFFF9A
:105A70000000000000000000FFFFFFFF000000002A
:105A800000000000000000000C18FFFF00000000F4
:105A90000000000000000000000000000000000006
:105AA00000000000000000000780002D0C0107002E
:105AB000FFFFFFFF0000000000000000FFFFFFFFEE
:105AC0000000000000000000000000000C2024186E
:105AD000FFFF0000000000000000000000000000C8
